:020000040800F2
:10000000B00B0020D5020008E3020008E50200085A
:10001000E7020008E9020008EB0200080000000007
:10002000000000000000000000000000ED020008D9
:10003000EF02000800000000F1020008F3020008CF
:10004000F5020008F5020008F5020008F5020008B4
:10005000F5020008F5020008F5020008F5020008A4
:10006000F5020008F5020008F5020008F502000894
:10007000F5020008F5020008F5020008F502000884
:10008000F5020008F5020008F5020008F502000874
:10009000F5020008F5020008F50200085D1D0008E1
:1000A000F5020008F5020008F5020008F502000854
:1000B000F5020008F5020008F5020008F502000844
:1000C000F5020008F5020008F5020008F502000834
:1000D000F50200081D2A0008F50200089D2A000804
:1000E000F5020008F5020008F5020008F502000814
:1000F000F5020008F5020008F5020008F502000804
:10010000F5020008F5020008F5020008F5020008F3
:10011000F5020008F5020008F50200088929000828
:10012000F5020008F5020008F5020008F5020008D3
:10013000F5020008F5020008F5020008F5020008C3
:10014000F5020008F5020008F5020008F5020008B3
:10015000F5020008F5020008F5020008F5020008A3
:10016000F5020008F5020008F5020008F502000893
:10017000F5020008F5020008F5020008F502000883
:10018000F5020008F502000800F002F800F092F80D
:100190000AA090E8000C82448344AAF10107DA45E2
:1001A00001D100F087F8AFF2090EBAE80F0013F0A2
:1001B000010F18BFFB1A43F0010318471833000062
:1001C00038330000103A24BF78C878C1FAD85207F3
:1001D00024BF30C830C144BF04680C6070470000C1
:1001E0000023002400250026103A28BF78C1FBD840
:1001F000520728BF30C148BF0B6070476E2900F01E
:100200009F82702900F0F383662903F0E08065295E
:1002100003F0DD80672903F0DA80612903F0D980DB
:1002200003681B0A28BF41F08001692900F0AA80F9
:10023000642900F0A780752900F0A4806F2900F0E0
:100240008183782900F0BF83E92900F01B83E4292A
:1002500000F01883F52900F01583EF2900F07E8364
:10026000F82900F0BE830368DB0928BF41F0800154
:10027000632900F0A187732900F0A687E32900F025
:10028000B187F32900F0B687002070471FB503F04F
:1002900094F801F005F804000020002102F0D6FED9
:1002A000401C60600020002102F0BAFEE0601FBD2B
:1002B00010B510BD00F0C6FF1146FFF7E7FF02F0D2
:1002C00059FD01F09FF803B4FFF7F2FF03BC02F001
:1002D0008CFC00000B48016841F4700101600A4881
:1002E0000047FEE7FEE7FEE7FEE7FEE7FEE7FEE784
:1002F000FEE7FEE7FEE7000004480549034A054B18
:100300007047000088ED00E089010008B007002078
:10031000B00B0020B0070020704700001CB50C4651
:10032000064B7B4469460090204600F022FA0446C2
:100330000020694600F030FA20461CBD730400001E
:100340000FB4044910B503AA029800F02BFA10BCB0
:100350005DF814FB040000200FB41CB5084B06AA7E
:100360007B4469460090059800F003FA044600209B
:10037000694600F011FA20461CBC5DF814FB000031
:10038000350400002DE9F041064600241068752967
:10039000314616A510D000F03FF9002802DA40429D
:1003A00013A507E031688A0701D512A502E04907C5
:1003B00004D511A5012401E000F037F900210A223B
:1003C00006F1240709E0B0FBF2FCB0FBF2F302FBFC
:1003D0001C00303078541846491C0028F3D12346BD
:1003E0002A463046BDE8F04100F051B90000000057
:1003F0002D0000002B000000200000002DE9F05F20
:10040000894604464FF0000ADFF874B1FB44C0F897
:1004100020A02046E1688847002874D0252806D00F
:10042000D4E901219047206A401C2062F1E70026B0
:100430005F462046E16888472028054607DB312DC6
:1004400005D2781910F8200C08B10643F1E7B0077F
:1004500001D526F00406C4F81CA00027C4F818A093
:100460002A2D09D0284602F0B9FB38B304EB8708DF
:10047000303DC8F8185019E059F8041B204604EB29
:1004800087029161E1688847012F054618D1E0692C
:10049000002820DA26F020061DE0D8F8180000EB2E
:1004A000800005EB40003038C8F818002046E168AD
:1004B0008847054602F092FB0028EED1012F0AD0B2
:1004C0002E2D08D12046E16888477F1C0546022F63
:1004D00046F02006C4DBA069002803DA404246F05B
:1004E0000106A061F00701D026F010066C2D0BD09C
:1004F000682D09D04C2D39D06A2D35D0742D35D0CA
:100500007A2D33D016E038E0E1682F462046884740
:10051000B842054609D16C2F26D04FF48060E168BF
:10052000064320468847054604E06C2F1AD04FF456
:10053000807006430DB3A5F14100192802D820357B
:1005400046F400664A462946204626604E46FFF796
:1005500055FE80B101280BD0F61D26F0070000F1F2
:10056000080956E74020E4E78020D8E70020D6E7D6
:1005700006F104094DE7284652E7206ABDE8F09FDE
:10058000C62F000010B5431C02E010F8011B71B12A
:100590008107FAD14FF0013202C88C1A8C4314EA59
:1005A000C211F9D0C01A0A0603D0C01E10BDC01A6D
:1005B00010BD0A0401D0801E10BD0902FCD0401EEF
:1005C00010BD704770477047704770B50446856925
:1005D0000068C10601D5302600E02026C00707D0FC
:1005E00070BDD4E9012130469047206A401C20624A
:1005F0006D1EF6D570BD70B5044685690078C007DC
:1006000007D170BDD4E9012120209047206A401C09
:1006100020626D1EF6D570BD09684A0501D540B24D
:100620007047C905FCD500B2704709684A0501D575
:10063000C0B27047C905FCD580B2704770B50C4692
:100640000546012A05D02878800600D5EA690023EE
:1006500002E0012305E05B1C934202D2E05C00282B
:10066000F9D1A869E618C01AA861286A1844286256
:100670002846FFF7AAFF04E0D5E9012114F8010B91
:100680009047B442F8D32846FFF7B5FF70BD2DE977
:10069000F0470D4699469246044600F12408016849
:1006A000880604D5E06921F01001216000E00120F6
:1006B000A84201DD471B00E00027A1697A1902EB7F
:1006C0000900081AA0612078C00602D42046FFF76E
:1006D0007CFF002608E0D4E901211AF806009047C3
:1006E000206A401C761C20624E45F4DB2078C00650
:1006F0000AD52046FFF769FF06E0D4E90121302042
:100700009047206A401C2062381EA7F10107F4DCE4
:1007100007E0D4E9012118F805009047206A401C41
:100720002062281EA5F10105F3DC2046FFF763FFD8
:100730002078000602D50220BDE8F0870120FBE703
:1007400011680268006A530501D508700AE0D305F4
:1007500001D5088006E0130603D5C217C1E90002DF
:1007600000E008600120704701694A1C02610878B6
:10077000704700B58FB0CDE90131002105910549E1
:100780007944CDE9031011466846FFF737FE0FB0F4
:1007900000BD0000E5FFFFFF0A6802F8010B0A60D8
:1007A00070470000074B70B50D467B44FFF7E1FF33
:1007B0000446284600F022FD10B14FF0FF3070BD16
:1007C000204670BD032500002DE9FF5F15468A46CF
:1007D0000446DFF8AC80F8440027D8E900103E4614
:1007E000CDE9001010E03AF816106A4602A800F0B1
:1007F00009FD411C07D02178890603D5E269391823
:1008000091420DD80744761C2078800602D5E06915
:10081000B84205DDAE42E6DB3AF816000028E2D128
:10082000A069C01BA0612046FFF7CFFED8E90010E9
:10083000CDE90010002017E03AF818106A4602A827
:1008400000F0E0FCB0F1FF3F81460BD000250DF138
:10085000080B05E0D4E901211BF8050090476D1C49
:100860004D45F7D308F10100B0428046E4DB206A31
:10087000384420622046FFF7BEFEBDE8FF9F00001F
:100880000E2C00002DE9F0418046D21D22F0070217
:100890000025D2E90002F52915A614D0011E72F137
:1008A000000106DA0023D0EB030063EB020211A67D
:1008B00008E0D8F800108B0701D50FA602E0490721
:1008C00001D50EA601251146002408F1240704E0F5
:1008D00000F098F830323A55641C50EA0102F7D122
:1008E0002B46324621464046BDE8F041FFF7CFBED9
:1008F000000000002D0000002B0000002000000080
:1009000030B4002100F1240408E002F00705D20809
:10091000303542EA4372DB086554491C52EA03054C
:10092000F3D10468002310A2250708D504F02004A1
:100930000C4304D0C46901230CA2641EC46130BC02
:10094000FFF7A5BE10B5044621461068FFF76DFEFF
:1009500002462046BDE810400023D1E7D21D22F018
:100960000701D1E90023CBE70000000030000000C0
:10097000F0B40D460188090502D5214C7C4402E003
:100980001F4C7C440E34002100F1240608E002F0E4
:100990000F071209E75D42EA03721B097754491CED
:1009A00052EA0307F3D102780023120704D5702D11
:1009B00006D009B1022311342246F0BCFFF767BE0E
:1009C00001231034F8E770B504460D46214610683F
:1009D000FFF72BFE024629462046BDE87040002363
:1009E000C6E7D21D22F00703D3E90023C0E703685E
:1009F000126843F0200303600823C3610023B7E7B4
:100A0000702A000030B5B0F10A024FEA900E71F181
:100A100000034EEA817EB0EB0E0061EB91014FEADC
:100A2000101E4EEA017E10EB0E0041EB11114FEA51
:100A3000102E4EEA016E10EB0E0041EB11214FEA31
:100A4000104E4EEA014E10EB0E0041EB11414018E2
:100A500041F100014FEAD00040EA41704FEAD10174
:100A600010EB80054FEA810444EA907444EB0104E2
:100A70006D1944EB0404521BA3414FF0000348BF1F
:100A80000A3200D530BD401C41F1000130BD704735
:100A90002DE9FF4F0C461E464FF0FF378BB0D2E9D1
:100AA0000001DDF860800A908A46C1F30A5505B955
:100AB0003D46002108464FF00000BAF1000F00F457
:100AC000400005DA00EB80004FF4400101EA5000DD
:100AD0004FEA9059B9F1010F00DDB9460A9850EA82
:100AE0004A000ED044F61050A5F2FF3545432F14AE
:100AF000B8F1000F1ED07542291E1EDDC9F100029B
:100B00001CE0B8F1010F4FF0000001D0302103E0EC
:100B1000F24305E02154401CB042FBDB304600228A
:100B2000002121540B99C1F80880C1E900200FB0C1
:100B3000BDE8F08FBD1B6D1CDEE74A4600DA694256
:100B400006A800F0F1FB06AB93E8070003AB83E8CF
:100B5000070050460A9900F09FFC8DE80700A0F5B9
:100B600000501F3800900398002D09DD42F21F014C
:100B70004A46084403A90390684600F0FEFE08E0D8
:100B8000A0F500504A461F3803A90390684600F0BC
:100B900008FF8DE807000004000C03D04FF0FF3081
:100BA000410800E01046B8F1000F03D00022009287
:100BB00015461EE0751E05D4FFF724FF303262553E
:100BC0006D1EF9D5B3460122084302D000227F1CD6
:100BD00004E02078302801D100227F1E002A0997E6
:100BE00086D01DE0112D07DAFFF70CFF3032625579
:100BF0006D1C50EA0102F5D1084302D00098C8B13B
:100C00000EE00021681E05E0235C625C6354225400
:100C1000401E491C8142F7DBAB46A81B401E0990D1
:100C2000002004F80B000B98099AC0F80880C0E96E
:100C3000002B7CE711264FF0000859E72DE9F04F13
:100C400088460446D21D22F0070191B0D1E9000187
:100C5000CDE90A0101F0AAFF02460B98C00F01D0AE
:100C60002D2007E02068810701D52B2002E02021FC
:100C700001EAC000032A099001D0072A05DB0346D8
:100C80004146204600F010FB0BE12078800601D59C
:100C9000E06900E00620B8F1650F814606D0B8F1A2
:100CA000660F18D0B8F1670F70D131E00020B9F1AC
:100CB000110F009001DB112301E009F101030AAAE1
:100CC00001A90CA8FFF7E4FEDDE90C70002609F18C
:100CD0000105834647E001204B4600904FF0004756
:100CE0000AAA01A90CA8FFF7D3FEDDE90DB00C9903
:100CF0005D46002610B909F101000D18B9EB050099
:100D000003D4C0F1FF3609F10105A5EB09002BE082
:100D1000B9F1010F01DA4FF001090020B9F1110F0B
:100D20000090484601DD112300E003460AAA01A90C
:100D30000CA8FFF7ADFEDDE90C704D46002683469A
:100D4000207800070AD4AB4500DA5D4601A8012DE2
:100D500004DD411911F8011C302907D04F4502DA92
:100D600017F1040F04DA012082460FE06D1EEEE752
:100D7000002F02DCED1B3E4403E0781CA84200DD9E
:100D80007D1CB81B00F1010A4FF0004720780007D6
:100D900003D4AA4501DB4FF0FF3A0021B7F1004F21
:100DA0000DF143088DF8431024D002202B23002F8F
:100DB00001DA7F422D230A21021EA0F1010000DC8E
:100DC0005FB197FBF1FC97FBF1F201FB1C7C17462E
:100DD0000CF1300C08F801CDEEE7A8F1010003702A
:100DE0002188090501D5452100E06521A0F1010810
:100DF00000F8011C09980FA9A1EB0807FF1D00B11D
:100E00000120411901EBEA70A1693844081A401E1B
:100E1000A0612078C00602D42046FFF7D6FB0998CF
:100E200028B1D4E901219047206A401C2062207833
:100E3000C00622D52046FFF7C8FB1EE0002E04DBCB
:100E4000B34502DD01A8805D00E03020D4E9012136
:100E50009047206A401C2062761CAAF101005FEADC
:100E6000000A0AD100F01CFAC0680168405CD4E9AD
:100E700001219047206A401C2062281EA5F101052F
:100E8000DCDC07E0D4E9012118F8010B9047206A67
:100E9000401C2062381EA7F10107F3DC2046FFF753
:100EA000AAFB032011B043E62DE9F04F04460D469E
:100EB000D21D22F0070089B0D0E9009248461746BB
:100EC000394601F073FE0246F80F01D02D2307E0EA
:100ED0002068810701D52B2302E0202101EAC0030D
:100EE0008DF820300BB1012000E00020032A82465B
:100EF00001D0072A04DB2946204600F0D5F93DE160
:100F00002078800601D40D2500E0E569C7F30A5674
:100F10000D2D49DA00214FEA175B08464FF000001B
:100F2000002F00F4400007DA00EB80004FF440018E
:100F300000EBD07001EA60008115012901DD4FF05E
:100F4000FF3100224FEA850CBCF1180F06D313467F
:100F5000ACF118004FF08052C24003E04FF4801310
:100F600023FA0CF30CF10C0CBCF1200F04D3ACF100
:100F7000200C09FA0CF001E007FA0CF000294FF000
:100F8000004801DD18B90FE00ED140450CD319EB34
:100F900002095F4121B9404502D19F4329EA020974
:100FA000BBEB175F00D0761C2088000502D57B487C
:100FB000784402E079487844193808AA302302F8C6
:100FC0000A30037C0AF10101002E0AF1020A53548F
:100FD0006A4602DC4FF0300101E04FF031014FF082
:100FE00001088DF8001002D0A6F2FF3603E059EA9E
:100FF000470100D06A4E002D02DC2178090704D594
:101000004FF002082E218DF80110C44600210BE09C
:10101000C7F303433F01C35C491C6D1E02F808304F
:10102000052908F1010801DA002DF1DC00210CE0AE
:1010300000EB1973491C1B786D1E082902F8083053
:101040004FEA091908F1010801DA002DF0DC2178D6
:10105000890602D514E0A8F10108E04505DD02EBA0
:10106000080111F8011C3029F5D0B8F1000F07DD97
:1010700002EB080111F8011C2E2901D1A8F1010889
:10108000002D05DD3E2102F808106D1E08F1010853
:10109000407C002E02F8080008F1010804DA2D2037
:1010A000764202F8080002E02B2002F808000A212C
:1010B0004FF47A70864208F101080BDB96FBF0F3DF
:1010C000303302F8083096FBF0F308F1010800FB1A
:1010D000136601E0642E0CDB642096FBF0F33033E2
:1010E00002F8083096FBF0F308F1010800FB1366E4
:1010F00001E00A2E06DB96FBF1F0303002F8080022
:1011000008F1010896FBF1F001FB1060303002F8A5
:101110000800A16908F1010808EB050202EB0A00CA
:10112000081AA0612078C00602D42046FFF74DFAC5
:10113000216A08AE01EB0A00206204E0D4E9012133
:1011400016F8010B9047BAF1010AF7D22078C006D1
:1011500002D52046FFF739FA6E4609E016F8010B72
:101160003E280FD0D4E901219047206A401C20621C
:10117000B8F10108F2D22046FFF73DFA09B003208A
:10118000BDE8F08F206A2844206203E0D4E9012101
:10119000302090476D1EEBD3F8E700007724000065
:1011A00002FCFFFF10B5436913B1AFF3008001E00B
:1011B000FFF744FA012010BD127800F124010A70F3
:1011C00000224A700122EDE711684FF0FF32E9E793
:1011D00010B5436913B1AFF3008001E0FFF7F4FAF3
:1011E000012010BD128800F1240182840022C284F3
:1011F0000122EDE711684FF0FF32E9E7007B00F0D4
:101200008000704770B516460C46054600F040F861
:10121000036893F80101012806D0FF2C0FD8185D50
:1012200068B101202C7070BDD3F807013246214609
:1012300003F2071303442846BDE8704018474FF0F7
:10124000FF3070BD754600F0E3F8AE460500694614
:10125000534620F00700854618B020B5FFF74CF83C
:10126000BDE820404FF000064FF000074FF00008A7
:101270004FF0000B21F00701AC46ACE8C009ACE828
:10128000C009ACE8C009ACE8C0098D467047000051
:1012900010B500F005F8001D10BD00BFB11D000025
:1012A000004870476C0700202DE9F0411F460446B6
:1012B00003260168072A01F4006004DB08B116A5C3
:1012C00005E016A503E008B115A500E015A521F07D
:1012D00010002060A069C01EA0610FB1401EA06177
:1012E0002046FFF772F94FB1D4E901213846904703
:1012F000206A401C2062C01C206206E0206AFAE7D7
:10130000D4E9012115F8010B9047761EF8D220464A
:10131000FFF771F9BDE8F0814E414E006E616E003D
:10132000494E4600696E66002DE9F0478146164633
:101330008AB0334878440DC88DE80D0030487844B1
:10134000801C03AC0DC884E80D0041F69B300844B6
:10135000372190FBF1F290FBF1F5A5F1800501FB3F
:1013600012041B3C02D56442012000E00020DFF89B
:1013700090A080460027FA44AAF1BE0A0DE0E007DB
:1013800009D03246684607EB47010AEB810100F0BD
:1013900008FB8DE8070064107F1C002CEFD1184F6C
:1013A0007F44AC3F18E0E80714D007EB04100DF1C0
:1013B000180A90E80E008AE80E00C068F04201D1D9
:1013C00098190890324606A903A800F0EAFA03AB80
:1013D00083E807006D10641C002DE4D13246694695
:1013E000B8F1000F03A802D000F0C7FA01E000F046
:1013F000D8FAC9E90001C9F808200AB0BDE8F087A9
:10140000842100000446AFF300802046FEF75BFF16
:10141000004870474C0700204FF0013C50F8042B67
:1014200051F8043B9A4221D1A2EB0C03934313EAF7
:10143000CC1317D150F8042B51F8043B9A4215D124
:10144000A2EB0C03934313EACC130BD150F8042BFB
:1014500051F8043B9A4209D1A2EB0C03934313EADF
:10146000CC13DBD04FF00000704700BFD01A01BA98
:10147000B1FA81F101F0180122FA01F0CB40C1F17B
:101480002001DBB2C0B2C01A2CFA01F3D11A914389
:1014900011EAC311E6D170475FEA400C08BF91F032
:1014A000000F4FEA8C234FEAC12243EA51514FEA21
:1014B0001C5018BF00F5F0404FEA300018BF41F053
:1014C00000415FEA6C5C00F02980BCF1FF3F08BF7F
:1014D00040F080407047130C06BF12044FF0100C10
:1014E0004FF0000C130E04BF12020CF1080C130F86
:1014F00004BF12010CF1040C930F04BF92000CF115
:10150000020CD30F04BF52000CF1010C11464FF036
:101510000002A0F11F00A0EB0C00704711F0004F7B
:1015200008BF704731F000413FF4D5AF0B0C06BF48
:1015300009044FF0100C4FF0000C0B0E04BF090211
:101540000CF1080C0B0F04BF09010CF1040C8B0FFC
:1015500004BF89000CF1020CCB0F04BF49000CF151
:10156000010CCCF12003A0EB0C0022FA03F302FAE9
:101570000CF241EA030100F10100704720F07F4CBA
:1015800080EA030023F07F47ACEB070303F57C53AD
:1015900000F0004003F1FF032DE980494FEA154BAD
:1015A00009B44FEA144325EA0B4E24EA03480FF22C
:1015B000042606EB132749083E785FEA320203FB54
:1015C0000667C7F5000707FB06F64FEA54374FEAF0
:1015D000D64606F1020607FB066CCCF1005C4FEA2A
:1015E0001C472CEA074C07FB06F40CFB06F504EB42
:1015F00015464FEA961634BF00204FF000404FEAE0
:10160000D13706FB07FC4FEA1C4C0CFB0BF7D21B37
:1016100003FB0CF761EB07010CFB0EF7B0EB074087
:1016200072EB17420CFB08F734BFA2EB0742B2EB98
:10163000074261EB17414FEA0C444FEA910706FB62
:1016400007FC4FEA1C4C0CFB0BF7B0EBC74072EBEE
:10165000573203FB0CF734BFA2EBC742B2EBC742D1
:1016600061EB57310CFB0EF7B0EBC70072EB577212
:101670000CFB08F734BFA2EBC702B2EBC70261EB69
:101680005771039F4FEA816141EA921104EBCC0448
:101690004FEAD1374FEA826206FB07FC42EA90121A
:1016A0004FEA80604FEA1C4C0CFB0BF7D21B03FB8C
:1016B0000CF761EB07010CFB0EF7B0EB074072EB88
:1016C00017420CFB08F734BFA2EB0742B2EB07420C
:1016D00061EB17414FEA8C554FEA910704EB9C24CC
:1016E00006FB07FC4FEA1C4C0CFB0BF7B0EBC740AA
:1016F00072EB573203FB0CF734BFA2EBC742B2EBDD
:10170000C74261EB57310CFB0EF7B0EBC70072EB31
:1017100057720CFB08F734BFA2EBC702B2EBC7024B
:1017200061EB577115EB4C254FEA816141EA92114B
:101730004FEA82624FEAD13742EA901206FB07FC79
:1017400044F100044FEA80604FEA1C4C0CFB0BF79D
:10175000D21B03FB0CF761EB07010CFB0EF7B0EBA0
:10176000074072EB17420CFB08F734BFA2EB0742AD
:10177000B2EB074261EB174115EB1C154FEA8131C3
:1017800041EA92414FEA823242EA90424FEA803087
:101790004FEA0C7644F1000448EA03434EEA0B4852
:1017A0004FF0000EB2EB080C71EB030724BF62464A
:1017B00039464EEB0E0E4FF0000B001852414941D6
:1017C0004BEB0B0BB2EB080C71EB03077BF1000B3F
:1017D00024BF624639464EEB0E0E4FF0000B001848
:1017E000524149414BEB0B0BB2EB080C71EB030779
:1017F0007BF1000B24BF624639464EEB0E0E51EAD8
:10180000020718BF46F0010616EB0E7655F10002EE
:1018100054F1000103D5BDE88901BDE80088BDE8A9
:101820008901BDE80048B619524141EB0101A3F11D
:101830000103704780807F7E7D7C7B7A7978777624
:1018400076757473727171706F6E6E6D6C6C6B6A9D
:101850006A6968686766666564646363626161603B
:10186000605F5F5E5E5D5D5C5C5B5B5A5A595958B8
:101870005857575656555555545453535252525122
:10188000515050504F4F4F4E4E4D4D4D4C4C4C4B78
:101890004B4B4A4A4A4949494848484747474746BF
:1018A00046464545454444444443434343424242FB
:1018B00042414141002B26D4770021D01CB54FEA8C
:1018C000370703B44FF010004FF010014FF0000045
:1018D0000FBCBDE810400BF1010BBBF1010F08BFBD
:1018E0005FEA170722BF12F1010211F101014FF067
:1018F000004143F1000300F0004043EA000070475C
:10190000F9D35708DAE746EA064613F1400F4FEAE3
:1019100016461FDD13F1200FDFBF16430A460021D4
:1019200020335B42C8D0C3F1200746EA064602FADC
:1019300007F74FEA164646EA0706C3F1200722FAE0
:1019400003F201FA07F721FA03F14FF0000342EA2C
:101950000702B1E746EA020646EA06464FEA16469D
:1019600046EA0106BCBF46EA0646360C4FF00003C5
:101970004FF000024FF000019EE72DE9C04893466A
:1019800030B491E8380007C831EA400C48BF34EA67
:10199000430C03D5FFF7F2FDFFF78CFFF0BCBDE869
:1019A00000882DE9C048934630B491E8380007C854
:1019B00010F0804F08BF13F0804F03D100F005F8FE
:1019C000FFF778FFF0BCBDE8008820F07F4780EA91
:1019D000030023F07F4C07EB0C03A3F57C5300F0CE
:1019E0000040A3F1FE0392F0000F00F0B38095F0E9
:1019F000000F00F077802DE901494FEA11404FEACE
:101A0000144621EA004800FB06FC24EA064708FBCE
:101A100006F607FB08F800FB07F718EB06484CEB47
:101A2000164C4FEA124B18EB07484FEA15464CEBA1
:101A3000174022EA0B4E0BFB06FC25EA06470EFB7D
:101A400006F607FB0EFE0BFB07F71EEB064E4CEBF4
:101A5000164C4FF000061EEB074E4CEB174B18EBE5
:101A60000B0840F1000018EB0E0B58EB000840F19A
:101A700000008F1A4FF000013CBFC943661B14BF22
:101A8000B5EB040C00213CBFC943F61B4FEA1744D9
:101A90004EEA8E0E27EA04454FEA1C4704FB076214
:101AA0002CEA074C05FB07F70CFB05F604FB0CFCC6
:101AB00016EB074642EB174216EB0C4642EB1C4274
:101AC0001BEB060658EB0202414146EA9E0601D591
:101AD000BDE80189B619524141EB0101A3F10103AF
:101AE000BDE801894FEA14454FEA114724EA05464B
:101AF00021EA074C05FB07F406FB07F70CFB06F190
:101B000005FB0CFC11EB074144EB17444FEA12476D
:101B100011EB0C4144EB1C4422EA074C05FB07F295
:101B200006FB07F70CFB06F605FB0CFC16EB07465D
:101B300042EB174216EB0C4642EB1C456A1854F177
:101B4000000148BF7047B619524141EB0101A3F1B2
:101B50000103704795F0000F37D04FEA11424FEA6A
:101B6000144721EA024624EA074C02FB07F106FB70
:101B700007F70CFB06F402FB0CFC14EB074441EBEB
:101B800017414FEA154714EB0C4441EB1C4125EA81
:101B9000074C02FB07F506FB07F70CFB06F602FBFA
:101BA0000CFC16EB074645EB174516EB0C4645EBD0
:101BB0001C42121951F1000148BF7047B619524139
:101BC00041EB0101A3F1010370474FEA14454FEACD
:101BD000114724EA054621EA074C05FB07F106FBFD
:101BE00007F70CFB06F24FF0000605FB0CFC12EBAE
:101BF000074241EB174112EB0C4251EB1C4148BF2D
:101C00007047921841EB0101A3F1010370470000F6
:101C10001CB52C48006840F480702A4908602948A7
:101C20001438006840F0010026491439086001208A
:101C300000210B460322CDE900102021224800F0AC
:101C400055F920482038006840F480701D4920393B
:101C500008600846006820F4807008604FF4403047
:101C60001A49086000201A494860886008464068A0
:101C700048600846406848600846806820F00200D6
:101C800088600846806820F40060886008468068A4
:101C900088600846C06A20F47000C8620846C06ABE
:101CA000C8620846006920F460300861084600698F
:101CB00040F4603008610846806840F001008860A8
:101CC0001CBD0000443802400000024004230140D3
:101CD0000020014050B91749096821F04001154A18
:101CE00011604FF40001144A11601FE0012808D16F
:101CF00010490831096841F040010E4A083211606C
:101D000009E0022807D10B490C31096841F0400174
:101D1000084A0C3211600749096841F04001054A40
:101D200011604FF40001044A803A116003490870C1
:101D300070470000003C014080E100E01B000020F3
:101D400070B505460C460026284600F0DBFC06462A
:101D500026EA0401284600F0D9FE70BD00B52148EE
:101D6000006800F0400000283BD01F48007802289F
:101D700012D11E480078012802D100201C49088099
:101D80000120194908701B48006808B9012000E0CB
:101D90000020184908601DE013480078012819D177
:101DA00012480078012806D11148008840F400400C
:101DB0000F4908800BE00D480078022807D10D4834
:101DC000006808B9012000E000200A4908600220EC
:101DD0000549087004480078FFF77CFF402001495E
:101DE000086000BD143C01401B0000201A000020C8
:101DF0000C00002098024042F0B503460846CD177B
:101E000001EB9575AD10A1EB8505AD062C0E2448B0
:101E1000006840F48040224D2860CD1701EB957595
:101E2000AE10204D55F826500F26A640B543084663
:101E3000CE1701EB9676B7101A4E46F82750CD17FD
:101E400001EB9575AE10174D55F8265003FA04F6C0
:101E50003543CE1701EB9676B710124E46F8275051
:101E60001148006801258D4028430F4D286002F07D
:101E7000010040B10C480C30006801258D4028431A
:101E8000094D0C35286002F0020040B106480830C8
:101E9000006801258D402843034D08352860F0BDBA
:101EA0004438024008380140003C014030B5CC10B5
:101EB00000F1200353F824304C07E50E0F24AC400A
:101EC000A343CD1000F1200444F82530CC1000F1DC
:101ED000200353F824304C07E40E02FA04F42343A1
:101EE000CD1000F1200444F8253030BD2DE9F04735
:101EF0000C46DDE90867002100258C4600BF60E044
:101F00004FF0010808FA01F504EA050CAC4557D179
:101F1000D0F800804FEA410A4FF0030909FA0AF9A4
:101F200028EA0908C0F80080D0F800804FEA41098B
:101F300002FA09F948EA0908C0F80080012A01D02C
:101F4000022A27D1D0F808804FEA410A4FF003094E
:101F500009FA0AF928EA0908C0F80880D0F80880C8
:101F60004FEA410906FA09F948EA0908C0F8088069
:101F7000D0F804904FF0010808FA01F829EA08099E
:101F8000C0F80490D0F8048003FA01F948EA09087F
:101F9000C0F80480D0F80C804FEA410A4FF00309E2
:101FA00009FA0AF928EA0908C0F80C80D0F80C8070
:101FB0004FEA410907FA09F948EA0908C0F80C8014
:101FC000491C10299CD3BDE8F087000001460D484C
:101FD000406B20F01F000B4A50631046406B0843D3
:101FE00050631046806840F08040906000BF054814
:101FF000006800F002000028F9D00248C06C80B2EE
:1020000070470000002001402DE9F04107460C46D2
:102010000025002608E03846FFF7D8FF05440520D4
:1020200000F00CFE701CC6B2A642F4DBB5FBF4F067
:1020300080B2BDE8F08100001CB51048006840F097
:1020400001000E4908600846006840F01000086072
:10205000012000210B460A46CDE90010182108484E
:10206000FFF744FF022000210B460A46CDE900108D
:1020700001210448FFF73AFF1CBD00003038024040
:10208000001002400000024010B5044614B10120C7
:102090001B4908701A48007808B31A48006838B11C
:1020A0001848001F006818B117480068012816D1A9
:1020B0000A2000F0C3FD0020114908701148006893
:1020C00008B9012010BD0F48001F006808B90220A0
:1020D000F8E70D480068012810D10320F2E709480D
:1020E000006801280AD10748001F0068012805D1AF
:1020F0000548006810B90120014908700020E1E797
:102100000A00002010024242000240421CB50B4867
:10211000006840F001000949086001200321002304
:102120000246CDE90010C0210548FFF7DFFE01207F
:10213000044908600449C1F89C021CBD30380240C3
:102140000000024098024042000040427CB500245A
:1021500001252F48006840F004002D49086008461A
:10216000006840F0100008600220032100230122D3
:10217000CDE900102748FFF7B9FE012000210B46EA
:102180000A46CDE9001040212348FFF7AFFE0222A6
:1021900006210420FFF730FE0223172219460020F3
:1021A00000F048F91D48006820F040001B49086015
:1021B000E8051B49086000201A49C1F880021A4945
:1021C000086002E0642000F039FD1848006800282B
:1021D000F8D04FF416512A2000F092FE0120124947
:1021E0000860282000F02AFD032407E00A2210A13D
:1021F00010A000F07FFD08B9002504E02000A4F144
:102200000101CCB2F2D100BF04B9012528467CBD42
:10221000303802400008024000100240003C0140FB
:1022200080E100E000004142840241421802424243
:102230004F4B0000307863312030783030203078D8
:102240003034000010B5002400F022FA00F04AF902
:1022500000F04EF9412000F0BFF800F055F816E00C
:102260000020FFF711FF0446022C00D110E00948BE
:10227000006848B10849522000F0E0F920B9022076
:102280000649087000F00CF8322000F0D7FCE7E7B0
:1022900000BF10BD18024242380700201A0000207B
:1022A00010B52DED068B14210520FFF7ADFE044679
:1022B00000EE104AB8EE400A10EE100A01F00CF8D9
:1022C00041EC190B9FED0B0B53EC102B00F006FFAC
:1022D00041EC180B00F0D0FE0AEE100A224607A1CE
:1022E0000748FEF739F8064906A000F061FDBDEC8D
:1022F000068B10BD6666666666664A3F256400000A
:10230000240000202573000010B500BF0A480068B3
:102310000028FBD00020094908600949C1F884025F
:10232000282000F08BFC0020064908800220064986
:102330000870FFF7CFFC10BD1802424280024142F4
:10234000000041420C0000201A000020002500245B
:10235000FFF75EFC00F020FA06E015A0FDF7F0FFA5
:102360004FF4967000F06AFCFFF7F0FE0028F4D1FD
:1023700013A0FDF7E5FF4FF4FA7000F05FFC16E0E4
:102380000020FFF781FE04461CB1032C01D1FFF7AA
:1023900059FF681CC5B21E2D06D100250C480068E7
:1023A000C0430C49C1F898020A2000F047FCE7E757
:1023B000CEB4BCECB2E2B5BDC4A3BFE9212121007B
:1023C000BCECB2E2B5BDC4A3BFE9212121000000ED
:1023D000980240420000404210B50446412C25D1ED
:1023E00008210846FFF7ACFC3D21112000F08EFBD0
:1023F0008621172000F08AFB7F21262000F086FB33
:102400001E212D2000F082FB00212C2000F07EFBFD
:102410008D212A2000F07AFB3E212B2000F076FB54
:10242000012000F0E4FB00F063F801E0FF2010BDA4
:102430000020FCE72DE9F0410746884614461D467A
:10244000284600F033F8C5F1040007FA00F60F2023
:10245000284100EA0800064306F00F06E21704EBE5
:10246000D2625211920002F1E022D2F800212146FC
:10247000E31704EBD3635B11A4EB431C012303FAC2
:102480000CF31A432046E31704EBD3635B119B0064
:1024900003F1E023C3F800210348005D40EA061081
:1024A00001490855BDE8F08100E400E0014607233A
:1024B00023EA01021202054B18684FF6FF03184089
:1024C000034B18431043014B186070470CED00E0BC
:1024D0000000FA054A0A52020243014B1A60704793
:1024E00008ED00E000B503211420FFF729FC00BD32
:1024F00010B5142000F006F9044604F0030018B9E2
:102500000321142000F078F910BD2DE9FE4F064696
:10251000884691469A46DDF830B0FE2002900020B1
:10252000019000900C2E06D00E2E09D112200190A1
:102530001020009005E0772001903020009000E00E
:1025400000BF00BF019840F08001022000F0DEFAD9
:1025500080210420FFF7F4FB0021012000F0D6FACF
:1025600080210A2000F048F9002505E018F8051040
:10257000092000F0CBFA6D1C4D45F7D33146012000
:1025800000F0C4FA0C2E03D180210D2000F034F9A4
:102590004FF4FA6500BF042000F0B4F804466D1E45
:1025A00035B104F0010018B9009820400028F2D09D
:1025B00080210D20FFF7C4FB95B3062000F0A2F8A0
:1025C00000F01B0068BB002002900198204000F042
:1025D000010008B1FF2002900C2E24D10A2000F047
:1025E00091F804460C2000F08DF800F007072FB199
:1025F000601E07EBC000CBF8000002E0E000CBF863
:10260000000004B90124122C00DD1224002505E08D
:10261000092000F077F80AF805006D1CA542F7D3F1
:1026200001E0FE20029080210C2000F0E5F800215E
:10263000012000F06BFA0298BDE8FE8F70B587B0FC
:1026400005460C4608210846FFF77AFB07210D20B6
:1026500000F05CFA0321142000F0CEF88DF804504D
:1026600006A801AB012201A900900C20FFF74DFF45
:1026700006464EB90698102806D19DF80400207031
:102680009DF80500607000E0FE26304607B070BD82
:1026900010B50120194908600A2000F0CFFA002087
:1026A0001749C1F884020A2000F0C8FA0120134932
:1026B00008600A2000F0C2FA0F21012000F026FA7B
:1026C0000A2000F0BBFA3D21112000F01FFA1E2164
:1026D0002D2000F01BFA00212C2000F017FA8D218C
:1026E0002A2000F013FA3E212B2000F00FFA40219F
:1026F000152000F00BFA002010BD000084024042BB
:102700000000404230B5024600200024204D2C60DD
:10271000204DC5F888427E2404EA420444F0800338
:10272000082118E003F08004802C04D10124184D06
:102730000C352C6003E00024154D0C352C60012471
:10274000134D2D1D2C605C06230E0024114DC5F881
:1027500088424C1EE1B20029E4DC08210EE001248D
:102760000B4D2D1D2C604406200E0A4CD4F80C4253
:102770000443E0B200242C604C1EE1B20029EEDCE0
:102780000124034D2C60034DC5F8884230BD000084
:1027900084024042000040421CB51348006840F0EB
:1027A00001001149086000200090034601223621F3
:1027B00001900E48FFF79AFB012000210B460A46C4
:1027C000CDE9001008210948FFF790FB01200849D6
:1027D00008600849C1F8880205490C3108600549BC
:1027E000C1F894021CBD00003038024000000240D5
:1027F000840240420000404270B505460C46002667
:102800002846FFF77FFF064646EA0401284600F007
:102810007DF970BDF0B504460D4616461F461448B6
:10282000006840F00100124908600020104908319A
:1028300008600F4800680F4908400D4908600E48BD
:10284000091D0860081F006820F48020091F086027
:10285000002007490C3108603B4632462946204695
:1028600000F00CF800210846FFF734FEF0BD000030
:1028700000380240FFFFF6FE10300024F0B5044699
:102880000D46002100203D4E366846F480363B4F11
:102890003E6001E04E1CB1B2384E366806F4003698
:1028A0001EB941F6FF76B142F4DB41F6FF76B14244
:1028B00001D1012060E0314E4036366846F0805646
:1028C0002E4F40373E602E4E366846F440462C4F21
:1028D0003E602A4E0836366846F41446274F0837BD
:1028E0003E60264E366826F08076244F3E6045EAEC
:1028F00084160127C7EB520746EA074646EA0366F5
:1029000046F480061D4F3F1D3E603E1F366846F070
:1029100080763F1F3E6000BF184E366806F0007696
:10292000002EF9D0174E366846F48076154F3E607B
:102930003E46366846F400763E603E46366846F4CB
:1029400080663E603E46366846F005063E600B4EA9
:102950000836366826F00306084F08373E603E46C4
:10296000366846F002063E6000BF044E0836366800
:1029700006F00C06082EF8D1F0BD00000038024029
:1029800000700040003C02400C48008800F001004C
:1029900098B10A48008820F00100084908800848DA
:1029A000008840F400400649088004481038008838
:1029B00020F00100014910390880704710140040D0
:1029C0000C00002070B505460C461248006840F027
:1029D00020001049086010480560001F0480002096
:1029E0000D49083908600C482038008840F0010083
:1029F00009492039088008482C38008840F0010037
:102A000005492C3908800223372201210020FFF7D5
:102A100011FD70BD403802402C1400401C4909884B
:102A200001F0200109B31A498988C8B219490988F7
:102A300001F40041C9B91749098801F4804161B125
:102A40000A2803D00021134A118020E01149098887
:102A500041F400410F4A118019E00D2806D10D49BB
:102A6000098841F480410B4A118010E00949098826
:102A7000C1F30D01084A505406490988491C054A0A
:102A8000118011460988C72901DD00211180704796
:102A900000100140080000202C0000201749098880
:102AA00001F0200111B31549091D0988C8B2144964
:102AB000098801F40041C9B911490988B1F5487F75
:102AC00015DA00210F4A11600D49098839B90D49FD
:102AD0002439098841F001010A4A243A1180084A40
:102AE00011884A1C064B1A80074A505405E00449D5
:102AF000098841F40041024A1180704700480040B3
:102B00000C000020241400401804002030B50246B8
:102B10000024244D2C60244DC5F888427E2404EA0C
:102B20004203082018E003F08004802C04D1012423
:102B30001C4D0C352C6003E000241A4D0C352C6024
:102B40000124184D2D1D2C605C06230E0024164D0B
:102B5000C5F88842441EE0B20028E4DC082018E0F2
:102B600001F08004802C04D101240E4D0C352C6022
:102B700003E000240B4D0C352C600124094D2D1D64
:102B80002C604C06210E0024074DC5F88842441ED7
:102B9000E0B20028E4DC0124024D2C60024DC5F8AF
:102BA000884230BD840240420000404203B4019894
:102BB0004100009850EAC12018BF04204A0D18BFF8
:102BC00040F0010040F2FF72B2EB515F08BF40F0ED
:102BD0000200012808BF052002B0704730380A28DB
:102BE00001D2012070470020704700BF704710B528
:102BF00004460A2000F022F810BD00004FF0E0214A
:102C0000096921F004014FF0E0221161C21700EBC5
:102C10005272C2F3C702074B1A701946097801EBCA
:102C20004102C2EBC1114FF6FF7202EAC101024A32
:102C300011807047000000200200002070B504469B
:102C40004FF4077094FBF0F0C6B24FF4077094FB9A
:102C5000F0F100FB114085B205E04FF4077000F081
:102C600009F8701EC6B2002EF7D115B1284600F043
:102C700001F870BD01460D4A12884A434FF0E02327
:102C80005A6100229A6101221A6100BF4FF0E022CE
:102C9000106900F001021AB100F48032002AF5D068
:102CA00000224FF0E0231A619A6170470200002071
:102CB00000BF054A128802F04002002AF9D0C2B2D1
:102CC000014B9A8070470000001001400146074800
:102CD000008800F4004030B10020044A1288C2F39A
:102CE0000E02034B98540120704700000C00002096
:102CF000180400202DE9F04104460E461546002731
:102D0000002018490880FF2C0AD800BF1648008808
:102D100000F040000028F9D01349091D0C8003E0A1
:102D2000214612A000F044F8C6B1BDB10FE00A2060
:102D3000FFF784FF0B48008800F4004038B13046AC
:102D4000FFF7C4FF18B100200649088003E0681EA1
:102D500080B20500EBD100BF05B901273846BDE8B8
:102D6000F08100000C0000200048004025730D0A8F
:102D7000000000000723022208214FF4A870FFF78B
:102D800049FDA820FFF73AFF4FF4E131542000F04D
:102D900037F8FFF7BBF9FFF74FF9FEF739FF05E00A
:102DA000FFF7D4FA4FF47A70FFF748FFF8E7000016
:102DB0000FB438B505A800900F48009A0499FDF7A4
:102DC000ADFA002000900C48FDF7DCFB85B2002432
:102DD0000DE000BF0948008800F040000028F9D04D
:102DE0000548005D0549091D0880601C84B2AC429D
:102DF000EFDB38BC5DF814FBF80000200048004011
:102E0000F0B52DED028B83B005460E46384905FB23
:102E100001F000EE100AF8EE400A300100EE100A50
:102E2000B8EE400A80EE801AB0EE418ABCEEC80AC5
:102E300010EE100A84B200EE104AB8EE400A38EEE6
:102E4000400AF3EE000A20EE200ABCEEC00A10EEA3
:102E5000107A4FF6FF7000EA0414E01984B2254896
:102E6000006840F0010023490860224814300068DF
:102E700040F010001F491431086001200221002396
:102E80000A46CDE900104FF4C0611B48FFF72EF849
:102E9000072209211848FFF709F807220A211648D6
:102EA000FFF704F815480481808920F40040134995
:102EB00088810846808940F008008881084680891A
:102EC00040F0040088810846808940F02000888115
:102ED0000223252203210846FFF7ACFA0748808920
:102EE00040F400500549888103B0BDEC028BF0BD71
:102EF00040420F0030380240000002400010014004
:102F0000F0B52DED028B83B005460E463E4905FB1C
:102F100001F000EE100AF8EE400A300100EE100A4F
:102F2000B8EE400A80EE801AB0EE418ABCEEC80AC4
:102F300010EE100A84B200EE104AB8EE400A38EEE5
:102F4000400AF3EE000A20EE200ABCEEC00A10EEA2
:102F5000107A4FF6FF7000EA0414E01984B22B488F
:102F6000006840F0020029490860284810300068D5
:102F700040F48020254910310860012002210023FF
:102F80000A46CDE900104FF440612148FEF7AEFF3C
:102F900007220A211E48FEF789FF07220B211C4841
:102FA000FEF784FF1B480480001D008840F00800E5
:102FB0001849091D08800846008840F00400088070
:102FC0000846008840F0200008800846008840F449
:102FD000005008800223272200210846FFF72AFA22
:102FE00042F2CF0140F2E730FFF7ECFC0A480088DC
:102FF00020F001000849088000200849088003B03B
:10300000BDEC028BF0BD000040420F0030380240A2
:103010000004024008480040001400400C0000205A
:1030200010B500290AD00878002807D00548784450
:10303000FEF7F2F9002801D0002010BD02487844C4
:1030400010BD0000C6040000BE04000010B5002939
:103050000AD00878002807D005487844FEF7DCF944
:10306000002801D0002010BD0248784410BD0000A7
:10307000B6040000AE04000021F00042A2F160524C
:10308000B2F5801F01F0004328BFD2F17F6C0BD94D
:103090005FEA001C43EAC20242EB507018BF70475F
:1030A00028BF20F001007047B2F5801FBCBF184652
:1030B00070474FEA410C1CF5001F02D2084600F091
:1030C00081B970B500F0B4F800000089FFF7F6BFD1
:1030D0004FF00040A0F5800070470000DFF848C1C5
:1030E00070B51CEA111E1EBF1CEA13159EEA0C0FD8
:1030F00095EA0C0F00F06F8081EA030423EA4C1379
:103100004EEAD47E21EA4C1141F4801143F480133D
:10311000AE44A1FB024CA0FB0365AEF17F7E3619E5
:1031200055EB0C05A1FB034C4CF10003A0FB021C6A
:1031300016EB0C06654153F10003094218BF46F037
:10314000010613F4007F0BD14FEA03314FEA05303B
:10315000340341EA155140EA16506FF003020AE0C9
:103160004FEAC3214FEAC520F40241EA555140EA33
:1031700056506FF0020202EB2E4201EB025585EA37
:10318000CE710AD05FEA440C18BF24F0004450F11D
:10319000000041F1000120EAD47040F2FE7C62455B
:1031A00000D270BDA84214BF4FF080444FF040449D
:1031B000002E08BF0024BEF1806FA8BFA1F1C0415E
:1031C000BDE8704080F282804FF0000001F1C04104
:1031D00001F0004170479EEA0C0F0CEA131518BF6E
:1031E00095EA0C0F06D04FF0000081EA030E0EF0B6
:1031F000004170BD00F01CF88900013E00F007B8E6
:1032000000F009B84FEA430C5FEA5C5C08D081EA41
:10321000030100F05BB84FEA410C5FEA5C5CF6D159
:103220004FF00000014970470000FF070000F87FE1
:103230000EF1020E2EF0030E5EF8046B364205D43A
:10324000012A43EB030515F5001F12D8012841EBB5
:10325000010C1CF5001F0CD80ED14FEAD17C15F5DE
:10326000001F0CEB4C0C0CF1020C08BF4CEBD37C98
:1032700004E04FF0080C01E04FEAD37C0CEB4C0566
:1032800026FA05F606F00706B6F1040C06D20EEB98
:10329000860CBDE870404CF0010C6047DFE80CF094
:1032A000090B02024FF000414FF00000A1F5002190
:1032B00070BD19461046012851EB010418BFD4F522
:1032C000001484BF002001F0004170BD0808A0F583
:1032D00000114FEA3101704743004FEAD30C4FEA27
:1032E0003C0C43401FBF40070CF1605113F0FE4FF0
:1032F00070471CF0006F03D100200CF000417047B4
:103300000CF0004343EA507010B540EACC0000F0E6
:103310000EF800BF000000924FEA0001FFF7D6BF91
:103320004FF000414FF00000A1F5002170470EF171
:10333000020E2EF0030E5EF8044B244204D44FEA32
:103340004102B2F17F4F11D84FEA4003B3F17F4FF2
:103350000CD80ED14FEAD07CB2F17F4F0CEB4C0C65
:103360000CF1020C08BF4CEBD17C04E04FF0080CD0
:1033700001E04FEAD17C0CEB4C0324FA03F404F097
:103380000704B4F1040C06D20EEB840CBDE8104027
:103390004CF0010C6047DFE80CF0070802024FF028
:1033A0000040A0F5800010BD0846420018BFD2F1D1
:1033B000807288BF00F0004010BD4FF04070E1EE19
:1033C000100A7047FF2141EAD050C0057047FDF751
:1033D00035BCFDF769BD04000008000000000000D6
:1033E00000020001000010000000000000000000CA
:1033F000303132333435363738394142434445462B
:103400004030580030313233343536373839616224
:103410006364656640307800303132333435363796
:1034200038396162636465667870003031323334F4
:10343000353637383941424344454658500000003C
:1034400002400000000000A0000000000540000055
:10345000000000C8000000000C4000000000409C7C
:1034600000000000194000000020BCBE0000000069
:1034700034400000BFC91B8E00000004B5400000AE
:10348000504BCFD06607E2CF010000006C41000036
:103490003E8251AADFEEA73401000000D9420000AD
:1034A000DCB5A0E23A301F97FFFFFFFFB4450000F4
:1034B000FD25A0C8E9A3C14FFFFFFFFFFF3F0000AC
:1034C0000000008000000000FF3F000000000080BE
:1034D0000000000020360008000000202C00000042
:1034E000C40100084C3600082C000020840B0000AA
:1034F000E00100081C00000043000000F8FFFFFF8F
:103500000C0000000E0000000F0000002E00000064
:103510001001000043000000F8FFFFFF00404040A2
:103520004040404040404141414141404040404096
:103530004040404040404040404040404005020242
:103540000202020202020202020202020220202001
:10355000202020202020200202020202020290905D
:10356000909090901010101010101010101010105B
:1035700010101010101010100202020202028888AF
:1035800088888888080808080808080808080808BB
:1035900008080808080808080202020240000000A3
:1035A000000000000000000000000000000000001B
:1035B000000000000000000000000000000000000B
:1035C00000000000000000000000000000000000FB
:1035D00000000000000000000000000000000000EB
:1035E00000000000000000000000000000000000DB
:1035F00000000000000000000000000000000000CB
:1036000000000000000000000000000000000000BA
:1036100000000000000000000000000000000000AA
:103620000000000000000000000001000000000099
:103630000000170305000000030000000000000068
:0C3640000000000000000000000000007E
:040000050800018965
:00000001FF
