Component: ARM Compiler 5.05 update 1 (build 106) Tool: armlink [4d0efa]

==============================================================================

Section Cross References

    startup_stm32f40_41xxx.o(STACK) refers (Special) to heapauxi.o(.text) for __use_two_region_memory
    startup_stm32f40_41xxx.o(HEAP) refers (Special) to heapauxi.o(.text) for __use_two_region_memory
    startup_stm32f40_41xxx.o(RESET) refers (Special) to heapauxi.o(.text) for __use_two_region_memory
    startup_stm32f40_41xxx.o(RESET) refers to startup_stm32f40_41xxx.o(STACK) for __initial_sp
    startup_stm32f40_41xxx.o(RESET) refers to startup_stm32f40_41xxx.o(.text) for Reset_Handler
    startup_stm32f40_41xxx.o(RESET) refers to lora_app.o(i.EXTI9_5_IRQHandler) for EXTI9_5_IRQHandler
    startup_stm32f40_41xxx.o(RESET) refers to usart.o(i.USART1_IRQHandler) for USART1_IRQHandler
    startup_stm32f40_41xxx.o(RESET) refers to usart3.o(i.USART3_IRQHandler) for USART3_IRQHandler
    startup_stm32f40_41xxx.o(RESET) refers to timer.o(i.TIM7_IRQHandler) for TIM7_IRQHandler
    startup_stm32f40_41xxx.o(.text) refers (Special) to heapauxi.o(.text) for __use_two_region_memory
    startup_stm32f40_41xxx.o(.text) refers to __main.o(!!!main) for __main
    startup_stm32f40_41xxx.o(.text) refers to startup_stm32f40_41xxx.o(HEAP) for Heap_Mem
    startup_stm32f40_41xxx.o(.text) refers to startup_stm32f40_41xxx.o(STACK) for Stack_Mem
    test.o(i.main) refers to sys.o(i.Stm32_Clock_Init) for Stm32_Clock_Init
    test.o(i.main) refers to delay.o(i.delay_init) for delay_init
    test.o(i.main) refers to usart.o(i.uart_init) for uart_init
    test.o(i.main) refers to led.o(i.LED_Init) for LED_Init
    test.o(i.main) refers to key.o(i.KEY_Init) for KEY_Init
==============================================================================

Removing Unused input sections from the image.

    Removing test.o(.rev16_text), (4 bytes).
    Removing test.o(.revsh_text), (4 bytes).
    Removing delay.o(.rev16_text), (4 bytes).
    Removing delay.o(.revsh_text), (4 bytes).
    Removing delay.o(i.delay_us), (60 bytes).
    Removing sys.o(.rev16_text), (4 bytes).
    Removing sys.o(.revsh_text), (4 bytes).
    Removing sys.o(.emb_text), (6 bytes).
    Removing sys.o(i.INTX_DISABLE), (4 bytes).
    Removing sys.o(i.INTX_ENABLE), (4 bytes).
    Removing sys.o(i.Sys_Soft_Reset), (16 bytes).
    Removing sys.o(i.Sys_Standby), (76 bytes).
    Removing sys.o(i.WFI_SET), (4 bytes).
    Removing usart.o(.rev16_text), (4 bytes).
    Removing usart.o(.revsh_text), (4 bytes).
    Removing led.o(.rev16_text), (4 bytes).
    Removing led.o(.revsh_text), (4 bytes).
    Removing key.o(.rev16_text), (4 bytes).
==============================================================================

Image Symbol Table

    Local Symbols

    Symbol Name                              Value     Ov Type        Size  Object(Section)

    ../clib/angel/boardlib.s                 0x00000000   Number         0  boardshut.o ABSOLUTE
    ../clib/angel/boardlib.s                 0x00000000   Number         0  boardinit3.o ABSOLUTE
    ../clib/angel/boardlib.s                 0x00000000   Number         0  boardinit1.o ABSOLUTE
    ../clib/angel/boardlib.s                 0x00000000   Number         0  boardinit2.o ABSOLUTE
    ../clib/angel/handlers.s                 0x00000000   Number         0  __scatter_copy.o ABSOLUTE
    ../clib/angel/handlers.s                 0x00000000   Number         0  __scatter_zi.o ABSOLUTE
    ../clib/angel/kernel.s                   0x00000000   Number         0  __rtentry2.o ABSOLUTE
    ../clib/angel/kernel.s                   0x00000000   Number         0  rtexit2.o ABSOLUTE
    ../clib/angel/kernel.s                   0x00000000   Number         0  rtexit.o ABSOLUTE
    ../clib/angel/kernel.s                   0x00000000   Number         0  __rtentry.o ABSOLUTE
    ../clib/angel/kernel.s                   0x00000000   Number         0  __rtentry4.o ABSOLUTE
    ../clib/angel/rt.s                       0x00000000   Number         0  rt_locale_intlibspace.o ABSOLUTE
    ../clib/angel/rt.s                       0x00000000   Number         0  rt_locale.o ABSOLUTE
    ../clib/angel/rt.s                       0x00000000   Number         0  rt_ctype_table.o ABSOLUTE
    ../clib/angel/rt.s                       0x00000000   Number         0  rt_raise.o ABSOLUTE
    ../clib/angel/scatter.s                  0x00000000   Number         0  __scatter.o ABSOLUTE
    ../clib/angel/startup.s                  0x00000000   Number         0  __main.o ABSOLUTE
    ../clib/angel/sys.s                      0x00000000   Number         0  sys_stackheap_outer.o ABSOLUTE
    ../clib/angel/sys.s                      0x00000000   Number         0  libspace.o ABSOLUTE
    ../clib/angel/sys.s                      0x00000000   Number         0  use_no_semi_2.o ABSOLUTE
    ../clib/angel/sys.s                      0x00000000   Number         0  indicate_semi.o ABSOLUTE
    ../clib/angel/sys.s                      0x00000000   Number         0  use_no_semi.o ABSOLUTE
    ../clib/angel/sysapp.c                   0x00000000   Number         0  sys_command.o ABSOLUTE
    ../clib/angel/sysapp.c                   0x00000000   Number         0  sys_wrch.o ABSOLUTE
    ../clib/armsys.c                         0x00000000   Number         0  no_argv.o ABSOLUTE
    ../clib/armsys.c                         0x00000000   Number         0  argv_veneer.o ABSOLUTE
    ../clib/armsys.c                         0x00000000   Number         0  argv_veneer.o ABSOLUTE
    ../clib/armsys.c                         0x00000000   Number         0  _get_argv_nomalloc.o ABSOLUTE
    ../clib/bigflt.c                         0x00000000   Number         0  bigflt0.o ABSOLUTE
    ../clib/btod.s                           0x00000000   Number         0  btod.o ABSOLUTE
    ../clib/heapalloc.c                      0x00000000   Number         0  hrguard.o ABSOLUTE
    ../clib/heapaux.c                        0x00000000   Number         0  heapauxi.o ABSOLUTE
    ../clib/libinit.s                        0x00000000   Number         0  libshutdown2.o ABSOLUTE
    ../clib/libinit.s                        0x00000000   Number         0  libinit.o ABSOLUTE
    ../clib/libinit.s                        0x00000000   Number         0  libinit2.o ABSOLUTE
    ../clib/libinit.s                        0x00000000   Number         0  libshutdown.o ABSOLUTE
    ../clib/locale.c                         0x00000000   Number         0  _wcrtomb.o ABSOLUTE
    ../clib/locale.s                         0x00000000   Number         0  lc_numeric_c.o ABSOLUTE
    ../clib/locale.s                         0x00000000   Number         0  lc_ctype_c.o ABSOLUTE
    ../clib/longlong.s                       0x00000000   Number         0  lludiv10.o ABSOLUTE
    ../clib/memcpset.s                       0x00000000   Number         0  strcmpv7m.o ABSOLUTE
    ../clib/misc.s                           0x00000000   Number         0  printf_stubs.o ABSOLUTE
    ../clib/printf.c                         0x00000000   Number         0  __printf_flags_wp.o ABSOLUTE
    ../clib/printf.c                         0x00000000   Number         0  _printf_oct_ll.o ABSOLUTE
    ../clib/printf.c                         0x00000000   Number         0  _printf_oct_int.o ABSOLUTE
    ../clib/printf.c                         0x00000000   Number         0  _printf_oct_int_ll.o ABSOLUTE
    ../clib/printf.c                         0x00000000   Number         0  _printf_fp_infnan.o ABSOLUTE
    ../clib/printf.c                         0x00000000   Number         0  __printf_wp.o ABSOLUTE
    ../clib/printf.c                         0x00000000   Number         0  __printf_flags_ss.o ABSOLUTE
    ../clib/printf.c                         0x00000000   Number         0  _printf_hex_ll.o ABSOLUTE
    ../clib/printf.c                         0x00000000   Number         0  _printf_hex_int.o ABSOLUTE
    ../clib/printf.c                         0x00000000   Number         0  __printf_ss_wp.o ABSOLUTE
    ../clib/printf.c                         0x00000000   Number         0  __printf_ss.o ABSOLUTE
    ../clib/printf.c                         0x00000000   Number         0  __printf_flags.o ABSOLUTE
    ../clib/printf.c                         0x00000000   Number         0  _printf_hex_int_ll.o ABSOLUTE
    ../clib/printf.c                         0x00000000   Number         0  _printf_hex_int_ptr.o ABSOLUTE
    ../clib/printf.c                         0x00000000   Number         0  _printf_hex_ll_ptr.o ABSOLUTE
    ../clib/printf.c                         0x00000000   Number         0  _printf_dec.o ABSOLUTE
    ../clib/printf.c                         0x00000000   Number         0  _printf_hex_int_ll_ptr.o ABSOLUTE
    ../clib/printf.c                         0x00000000   Number         0  __printf.o ABSOLUTE
    ../clib/printf.c                         0x00000000   Number         0  _printf_hex_ptr.o ABSOLUTE
    ../clib/printf.c                         0x00000000   Number         0  _printf_longlong_dec.o ABSOLUTE
    ../clib/printf.c                         0x00000000   Number         0  noretval__2sprintf.o ABSOLUTE
    ../clib/printf.c                         0x00000000   Number         0  noretval__2printf.o ABSOLUTE
    ../clib/printf.c                         0x00000000   Number         0  __2printf.o ABSOLUTE
    ../clib/printf.c                         0x00000000   Number         0  _printf_pad.o ABSOLUTE
    ../clib/printf.c                         0x00000000   Number         0  _printf_truncate.o ABSOLUTE
    ../clib/printf.c                         0x00000000   Number         0  _printf_wchar.o ABSOLUTE
    ../clib/printf.c                         0x00000000   Number         0  _printf_str.o ABSOLUTE
    ../clib/printf.c                         0x00000000   Number         0  _printf_char.o ABSOLUTE
    ../clib/printf.c                         0x00000000   Number         0  _printf_intcommon.o ABSOLUTE
    ../clib/printf.c                         0x00000000   Number         0  __printf_nopercent.o ABSOLUTE
    ../clib/printf.c                         0x00000000   Number         0  _printf_charcount.o ABSOLUTE
    ../clib/printf.c                         0x00000000   Number         0  _printf_fp_hex.o ABSOLUTE
    ../clib/printf.c                         0x00000000   Number         0  _printf_char_common.o ABSOLUTE
    ../clib/printf.c                         0x00000000   Number         0  _printf_fp_dec.o ABSOLUTE
    ../clib/printf.c                         0x00000000   Number         0  vsprintf.o ABSOLUTE
    ../clib/printf.c                         0x00000000   Number         0  _sputc.o ABSOLUTE
    ../clib/printf.c                         0x00000000   Number         0  __printf_flags_ss_wp.o ABSOLUTE
    ../clib/printf.c                         0x00000000   Number         0  _printf_char_file.o ABSOLUTE
    ../clib/printf.c                         0x00000000   Number         0  __2sprintf.o ABSOLUTE
    ../clib/printf.c                         0x00000000   Number         0  _printf_wctomb.o ABSOLUTE
    ../clib/printf_percent.s                 0x00000000   Number         0  _printf_d.o ABSOLUTE
    ../clib/printf_percent.s                 0x00000000   Number         0  _printf_percent.o ABSOLUTE
    ../clib/printf_percent.s                 0x00000000   Number         0  _printf_llx.o ABSOLUTE
    ../clib/printf_percent.s                 0x00000000   Number         0  _printf_c.o ABSOLUTE
    ../clib/printf_percent.s                 0x00000000   Number         0  _printf_llo.o ABSOLUTE
    ../clib/printf_percent.s                 0x00000000   Number         0  _printf_s.o ABSOLUTE
    ../clib/printf_percent.s                 0x00000000   Number         0  _printf_ls.o ABSOLUTE
    ../clib/printf_percent.s                 0x00000000   Number         0  _printf_n.o ABSOLUTE
    ../clib/printf_percent.s                 0x00000000   Number         0  _printf_lc.o ABSOLUTE
    ../clib/printf_percent.s                 0x00000000   Number         0  _printf_x.o ABSOLUTE
    ../clib/printf_percent.s                 0x00000000   Number         0  _printf_l.o ABSOLUTE
    ../clib/printf_percent.s                 0x00000000   Number         0  _printf_p.o ABSOLUTE
    ../clib/printf_percent.s                 0x00000000   Number         0  _printf_ll.o ABSOLUTE
    ../clib/printf_percent.s                 0x00000000   Number         0  _printf_o.o ABSOLUTE
    ../clib/printf_percent.s                 0x00000000   Number         0  _printf_llu.o ABSOLUTE
    ../clib/printf_percent.s                 0x00000000   Number         0  _printf_i.o ABSOLUTE
    ../clib/printf_percent.s                 0x00000000   Number         0  _printf_u.o ABSOLUTE
    ../clib/printf_percent.s                 0x00000000   Number         0  _printf_lli.o ABSOLUTE
    ../clib/printf_percent.s                 0x00000000   Number         0  _printf_f.o ABSOLUTE
    ../clib/printf_percent.s                 0x00000000   Number         0  _printf_percent_end.o ABSOLUTE
    ../clib/printf_percent.s                 0x00000000   Number         0  _printf_e.o ABSOLUTE
    ../clib/printf_percent.s                 0x00000000   Number         0  _printf_g.o ABSOLUTE
    ../clib/printf_percent.s                 0x00000000   Number         0  _printf_a.o ABSOLUTE
    ../clib/printf_percent.s                 0x00000000   Number         0  _printf_lld.o ABSOLUTE
    ../clib/signal.c                         0x00000000   Number         0  defsig_rtmem_outer.o ABSOLUTE
    ../clib/signal.c                         0x00000000   Number         0  __raise.o ABSOLUTE
    ../clib/signal.c                         0x00000000   Number         0  defsig_exit.o ABSOLUTE
    ../clib/signal.c                         0x00000000   Number         0  defsig_pvfn_inner.o ABSOLUTE
    ../clib/signal.c                         0x00000000   Number         0  defsig_other.o ABSOLUTE
    ../clib/signal.c                         0x00000000   Number         0  defsig_segv_inner.o ABSOLUTE
    ../clib/signal.c                         0x00000000   Number         0  defsig_cppl_inner.o ABSOLUTE
    ../clib/signal.c                         0x00000000   Number         0  defsig_stak_inner.o ABSOLUTE
    ../clib/signal.c                         0x00000000   Number         0  defsig_rtmem_formal.o ABSOLUTE
    ../clib/signal.c                         0x00000000   Number         0  defsig_rtred_inner.o ABSOLUTE
    ../clib/signal.c                         0x00000000   Number         0  defsig_fpe_inner.o ABSOLUTE
    ../clib/signal.c                         0x00000000   Number         0  defsig_abrt_inner.o ABSOLUTE
    ../clib/signal.c                         0x00000000   Number         0  defsig_general.o ABSOLUTE
    ../clib/signal.c                         0x00000000   Number         0  defsig_rtmem_inner.o ABSOLUTE
    ../clib/signal.s                         0x00000000   Number         0  defsig.o ABSOLUTE
    ../clib/stdio.c                          0x00000000   Number         0  ferror.o ABSOLUTE
    ../clib/stdio.c                          0x00000000   Number         0  ferror_locked.o ABSOLUTE
    ../clib/stdlib.c                         0x00000000   Number         0  exit.o ABSOLUTE
    ../clib/string.c                         0x00000000   Number         0  strlen.o ABSOLUTE
    ../fplib/d2f.s                           0x00000000   Number         0  d2f.o ABSOLUTE
    ../fplib/dmul.s                          0x00000000   Number         0  dmul.o ABSOLUTE
    ../fplib/dnaninf.s                       0x00000000   Number         0  dnaninf.o ABSOLUTE
    ../fplib/dretinf.s                       0x00000000   Number         0  dretinf.o ABSOLUTE
    ../fplib/f2d.s                           0x00000000   Number         0  f2d.o ABSOLUTE
    ../fplib/fnaninf.s                       0x00000000   Number         0  fnaninf.o ABSOLUTE
    ../fplib/fpinit.s                        0x00000000   Number         0  fpinit.o ABSOLUTE
    ../fplib/fretinf.s                       0x00000000   Number         0  fretinf.o ABSOLUTE
    ../fplib/istatus.s                       0x00000000   Number         0  istatus.o ABSOLUTE
    ../fplib/printf1.s                       0x00000000   Number         0  printf1.o ABSOLUTE
    ../fplib/printf2.s                       0x00000000   Number         0  printf2.o ABSOLUTE
    ../fplib/printf2a.s                      0x00000000   Number         0  printf2a.o ABSOLUTE
    ../fplib/printf2b.s                      0x00000000   Number         0  printf2b.o ABSOLUTE
    ../fplib/usenofp.s                       0x00000000   Number         0  usenofp.o ABSOLUTE
    ../mathlib/fpclassify.c                  0x00000000   Number         0  fpclassify.o ABSOLUTE
    ..\HARDWARE\ADC\adc.c                    0x00000000   Number         0  adc.o ABSOLUTE
    ..\HARDWARE\KEY\key.c                    0x00000000   Number         0  key.o ABSOLUTE
    ..\HARDWARE\LED\led.c                    0x00000000   Number         0  led.o ABSOLUTE
    ..\HARDWARE\TIMER\timer.c                0x00000000   Number         0  timer.o ABSOLUTE
    ..\HARDWARE\USART3\usart3.c              0x00000000   Number         0  usart3.o ABSOLUTE
    ..\LORA\lora_app.c                       0x00000000   Number         0  lora_app.o ABSOLUTE
    ..\LORA\lora_ui.c                        0x00000000   Number         0  lora_ui.o ABSOLUTE
    ..\RFID\RC522.C                          0x00000000   Number         0  rc522.o ABSOLUTE
    ..\SYSTEM\delay\delay.c                  0x00000000   Number         0  delay.o ABSOLUTE
    ..\SYSTEM\sys\sys.c                      0x00000000   Number         0  sys.o ABSOLUTE
    ..\SYSTEM\usart\usart.c                  0x00000000   Number         0  usart.o ABSOLUTE
    ..\\HARDWARE\\ADC\\adc.c                 0x00000000   Number         0  adc.o ABSOLUTE
    ..\\HARDWARE\\KEY\\key.c                 0x00000000   Number         0  key.o ABSOLUTE
    ..\\HARDWARE\\LED\\led.c                 0x00000000   Number         0  led.o ABSOLUTE
    ..\\HARDWARE\\TIMER\\timer.c             0x00000000   Number         0  timer.o ABSOLUTE
    ..\\HARDWARE\\USART3\\usart3.c           0x00000000   Number         0  usart3.o ABSOLUTE
    ..\\LORA\\lora_app.c                     0x00000000   Number         0  lora_app.o ABSOLUTE
    ..\\LORA\\lora_ui.c                      0x00000000   Number         0  lora_ui.o ABSOLUTE
    ..\\RFID\\RC522.C                        0x00000000   Number         0  rc522.o ABSOLUTE
    ..\\SYSTEM\\delay\\delay.c               0x00000000   Number         0  delay.o ABSOLUTE
    ..\\SYSTEM\\sys\\sys.c                   0x00000000   Number         0  sys.o ABSOLUTE
    ..\\SYSTEM\\usart\\usart.c               0x00000000   Number         0  usart.o ABSOLUTE
    dc.s                                     0x00000000   Number         0  dc.o ABSOLUTE
    startup_stm32f40_41xxx.s                 0x00000000   Number         0  startup_stm32f40_41xxx.o ABSOLUTE
    test.c                                   0x00000000   Number         0  test.o ABSOLUTE
    test.c                                   0x00000000   Number         0  test.o ABSOLUTE
    RESET                                    0x08000000   Section      392  startup_stm32f40_41xxx.o(RESET)
    !!!main                                  0x08000188   Section        8  __main.o(!!!main)
    !!!scatter                               0x08000190   Section       52  __scatter.o(!!!scatter)
    !!handler_copy                           0x080001c4   Section       26  __scatter_copy.o(!!handler_copy)
    !!handler_zi                             0x080001e0   Section       28  __scatter_zi.o(!!handler_zi)
    .ARM.Collect$$_printf_percent$$00000000  0x080001fc   Section        0  _printf_percent.o(.ARM.Collect$$_printf_percent$$00000000)
    .ARM.Collect$$_printf_percent$$00000001  0x080001fc   Section        6  _printf_n.o(.ARM.Collect$$_printf_percent$$00000001)
    .ARM.Collect$$_printf_percent$$00000002  0x08000202   Section        6  _printf_p.o(.ARM.Collect$$_printf_percent$$00000002)
    .ARM.Collect$$_printf_percent$$00000003  0x08000208   Section        6  _printf_f.o(.ARM.Collect$$_printf_percent$$00000003)
    .ARM.Collect$$_printf_percent$$00000004  0x0800020e   Section        6  _printf_e.o(.ARM.Collect$$_printf_percent$$00000004)
    .ARM.Collect$$_printf_percent$$00000005  0x08000214   Section        6  _printf_g.o(.ARM.Collect$$_printf_percent$$00000005)
    .ARM.Collect$$_printf_percent$$00000006  0x0800021a   Section        6  _printf_a.o(.ARM.Collect$$_printf_percent$$00000006)
    .ARM.Collect$$_printf_percent$$00000007  0x08000220   Section       10  _printf_ll.o(.ARM.Collect$$_printf_percent$$00000007)
    .ARM.Collect$$_printf_percent$$00000008  0x0800022a   Section        6  _printf_i.o(.ARM.Collect$$_printf_percent$$00000008)
    .ARM.Collect$$_printf_percent$$00000009  0x08000230   Section        6  _printf_d.o(.ARM.Collect$$_printf_percent$$00000009)
    .ARM.Collect$$_printf_percent$$0000000A  0x08000236   Section        6  _printf_u.o(.ARM.Collect$$_printf_percent$$0000000A)
    .ARM.Collect$$_printf_percent$$0000000B  0x0800023c   Section        6  _printf_o.o(.ARM.Collect$$_printf_percent$$0000000B)
    .ARM.Collect$$_printf_percent$$0000000C  0x08000242   Section        6  _printf_x.o(.ARM.Collect$$_printf_percent$$0000000C)
    .ARM.Collect$$_printf_percent$$0000000D  0x08000248   Section        6  _printf_lli.o(.ARM.Collect$$_printf_percent$$0000000D)
    .ARM.Collect$$_printf_percent$$0000000E  0x0800024e   Section        6  _printf_lld.o(.ARM.Collect$$_printf_percent$$0000000E)
    .ARM.Collect$$_printf_percent$$0000000F  0x08000254   Section        6  _printf_llu.o(.ARM.Collect$$_printf_percent$$0000000F)
    .ARM.Collect$$_printf_percent$$00000010  0x0800025a   Section        6  _printf_llo.o(.ARM.Collect$$_printf_percent$$00000010)
    .ARM.Collect$$_printf_percent$$00000011  0x08000260   Section        6  _printf_llx.o(.ARM.Collect$$_printf_percent$$00000011)
    .ARM.Collect$$_printf_percent$$00000012  0x08000266   Section       10  _printf_l.o(.ARM.Collect$$_printf_percent$$00000012)
    .ARM.Collect$$_printf_percent$$00000013  0x08000270   Section        6  _printf_c.o(.ARM.Collect$$_printf_percent$$00000013)
    .ARM.Collect$$_printf_percent$$00000014  0x08000276   Section        6  _printf_s.o(.ARM.Collect$$_printf_percent$$00000014)
    .ARM.Collect$$_printf_percent$$00000015  0x0800027c   Section        6  _printf_lc.o(.ARM.Collect$$_printf_percent$$00000015)
    .ARM.Collect$$_printf_percent$$00000016  0x08000282   Section        6  _printf_ls.o(.ARM.Collect$$_printf_percent$$00000016)
    .ARM.Collect$$_printf_percent$$00000017  0x08000288   Section        4  _printf_percent_end.o(.ARM.Collect$$_printf_percent$$00000017)
    .ARM.Collect$$libinit$$00000000          0x0800028c   Section        2  libinit.o(.ARM.Collect$$libinit$$00000000)
    .ARM.Collect$$libinit$$00000001          0x0800028e   Section        4  libinit2.o(.ARM.Collect$$libinit$$00000001)
    .ARM.Collect$$libinit$$00000004          0x08000292   Section        0  libinit2.o(.ARM.Collect$$libinit$$00000004)
    .ARM.Collect$$libinit$$0000000A          0x08000292   Section        0  libinit2.o(.ARM.Collect$$libinit$$0000000A)
    .ARM.Collect$$libinit$$0000000C          0x08000292   Section        0  libinit2.o(.ARM.Collect$$libinit$$0000000C)
    .ARM.Collect$$libinit$$0000000E          0x08000292   Section        0  libinit2.o(.ARM.Collect$$libinit$$0000000E)
    .ARM.Collect$$libinit$$0000000F          0x08000292   Section        6  libinit2.o(.ARM.Collect$$libinit$$0000000F)
    .ARM.Collect$$libinit$$00000011          0x08000298   Section        0  libinit2.o(.ARM.Collect$$libinit$$00000011)
    .ARM.Collect$$libinit$$00000012          0x08000298   Section       12  libinit2.o(.ARM.Collect$$libinit$$00000012)
    .ARM.Collect$$libinit$$00000013          0x080002a4   Section        0  libinit2.o(.ARM.Collect$$libinit$$00000013)
    .ARM.Collect$$libinit$$00000015          0x080002a4   Section        0  libinit2.o(.ARM.Collect$$libinit$$00000015)
    .ARM.Collect$$libinit$$00000016          0x080002a4   Section       10  libinit2.o(.ARM.Collect$$libinit$$00000016)
    .ARM.Collect$$libinit$$00000017          0x080002ae   Section        0  libinit2.o(.ARM.Collect$$libinit$$00000017)
    .ARM.Collect$$libinit$$00000019          0x080002ae   Section        0  libinit2.o(.ARM.Collect$$libinit$$00000019)
    .ARM.Collect$$libinit$$0000001B          0x080002ae   Section        0  libinit2.o(.ARM.Collect$$libinit$$0000001B)
    .ARM.Collect$$libinit$$0000001D          0x080002ae   Section        0  libinit2.o(.ARM.Collect$$libinit$$0000001D)
    .ARM.Collect$$libinit$$0000001F          0x080002ae   Section        0  libinit2.o(.ARM.Collect$$libinit$$0000001F)
    .ARM.Collect$$libinit$$00000021          0x080002ae   Section        0  libinit2.o(.ARM.Collect$$libinit$$00000021)
    .ARM.Collect$$libinit$$00000023          0x080002ae   Section        0  libinit2.o(.ARM.Collect$$libinit$$00000023)
    .ARM.Collect$$libinit$$00000025          0x080002ae   Section        0  libinit2.o(.ARM.Collect$$libinit$$00000025)
    .ARM.Collect$$libinit$$0000002C          0x080002ae   Section        0  libinit2.o(.ARM.Collect$$libinit$$0000002C)
    .ARM.Collect$$libinit$$0000002E          0x080002ae   Section        0  libinit2.o(.ARM.Collect$$libinit$$0000002E)
    .ARM.Collect$$libinit$$00000030          0x080002ae   Section        0  libinit2.o(.ARM.Collect$$libinit$$00000030)
    .ARM.Collect$$libinit$$00000032          0x080002ae   Section        0  libinit2.o(.ARM.Collect$$libinit$$00000032)
    .ARM.Collect$$libinit$$00000033          0x080002ae   Section        2  libinit2.o(.ARM.Collect$$libinit$$00000033)
    .ARM.Collect$$libshutdown$$00000000      0x080002b0   Section        2  libshutdown.o(.ARM.Collect$$libshutdown$$00000000)
    .ARM.Collect$$libshutdown$$00000003      0x080002b2   Section        0  libshutdown2.o(.ARM.Collect$$libshutdown$$00000003)
    .ARM.Collect$$libshutdown$$00000006      0x080002b2   Section        0  libshutdown2.o(.ARM.Collect$$libshutdown$$00000006)
    .ARM.Collect$$libshutdown$$00000009      0x080002b2   Section        0  libshutdown2.o(.ARM.Collect$$libshutdown$$00000009)
    .ARM.Collect$$libshutdown$$0000000B      0x080002b2   Section        0  libshutdown2.o(.ARM.Collect$$libshutdown$$0000000B)
    .ARM.Collect$$libshutdown$$0000000E      0x080002b2   Section        0  libshutdown2.o(.ARM.Collect$$libshutdown$$0000000E)
    .ARM.Collect$$libshutdown$$0000000F      0x080002b2   Section        2  libshutdown2.o(.ARM.Collect$$libshutdown$$0000000F)
    .ARM.Collect$$rtentry$$00000000          0x080002b4   Section        0  __rtentry.o(.ARM.Collect$$rtentry$$00000000)
    .ARM.Collect$$rtentry$$00000002          0x080002b4   Section        0  __rtentry2.o(.ARM.Collect$$rtentry$$00000002)
    .ARM.Collect$$rtentry$$00000004          0x080002b4   Section        6  __rtentry4.o(.ARM.Collect$$rtentry$$00000004)
    .ARM.Collect$$rtentry$$00000009          0x080002ba   Section        0  __rtentry2.o(.ARM.Collect$$rtentry$$00000009)
    .ARM.Collect$$rtentry$$0000000A          0x080002ba   Section        4  __rtentry2.o(.ARM.Collect$$rtentry$$0000000A)
    .ARM.Collect$$rtentry$$0000000C          0x080002be   Section        0  __rtentry2.o(.ARM.Collect$$rtentry$$0000000C)
    .ARM.Collect$$rtentry$$0000000D          0x080002be   Section        8  __rtentry2.o(.ARM.Collect$$rtentry$$0000000D)
    .ARM.Collect$$rtexit$$00000000           0x080002c6   Section        2  rtexit.o(.ARM.Collect$$rtexit$$00000000)
    .ARM.Collect$$rtexit$$00000002           0x080002c8   Section        0  rtexit2.o(.ARM.Collect$$rtexit$$00000002)
    .ARM.Collect$$rtexit$$00000003           0x080002c8   Section        4  rtexit2.o(.ARM.Collect$$rtexit$$00000003)
    .ARM.Collect$$rtexit$$00000004           0x080002cc   Section        6  rtexit2.o(.ARM.Collect$$rtexit$$00000004)
    .text                                    0x080002d4   Section       68  startup_stm32f40_41xxx.o(.text)
    $v0                                      0x080002d4   Number         0  startup_stm32f40_41xxx.o(.text)
    .text                                    0x08000318   Section        2  use_no_semi_2.o(.text)
    .text                                    0x0800031c   Section        0  vsprintf.o(.text)
    .text                                    0x08000340   Section        0  __2printf.o(.text)
    .text                                    0x08000358   Section        0  __2sprintf.o(.text)
    .text                                    0x08000384   Section        0  _printf_dec.o(.text)
    .text                                    0x080003fc   Section        0  __printf_flags_ss_wp.o(.text)
    .text                                    0x08000584   Section        0  strlen.o(.text)
    .text                                    0x080005c2   Section        0  heapauxi.o(.text)
    .text                                    0x080005c8   Section        2  use_no_semi.o(.text)
    .text                                    0x080005ca   Section        0  _printf_pad.o(.text)
    .text                                    0x08000618   Section        0  _printf_truncate.o(.text)
    .text                                    0x0800063c   Section        0  _printf_str.o(.text)
    .text                                    0x0800068e   Section        0  _printf_intcommon.o(.text)
    .text                                    0x08000740   Section        0  _printf_charcount.o(.text)
    .text                                    0x08000768   Section        0  _printf_char_common.o(.text)
    _printf_input_char                       0x08000769   Thumb Code    10  _printf_char_common.o(.text)
    .text                                    0x08000798   Section        0  _sputc.o(.text)
    .text                                    0x080007a4   Section        0  _printf_char_file.o(.text)
    .text                                    0x080007c8   Section        0  _printf_wctomb.o(.text)
    .text                                    0x08000884   Section        0  _printf_longlong_dec.o(.text)
    .text                                    0x08000900   Section        0  _printf_oct_int_ll.o(.text)
    _printf_longlong_oct_internal            0x08000901   Thumb Code     0  _printf_oct_int_ll.o(.text)
    .text                                    0x08000970   Section        0  _printf_hex_int_ll_ptr.o(.text)
    _printf_hex_common                       0x08000971   Thumb Code     0  _printf_hex_int_ll_ptr.o(.text)
    .text                                    0x08000a04   Section      138  lludiv10.o(.text)
    .text                                    0x08000a8e   Section        0  _printf_fp_dec.o(.text)
    _fp_digits                               0x08000a91   Thumb Code   428  _printf_fp_dec.o(.text)
    .text                                    0x08000ea8   Section        0  _printf_fp_hex.o(.text)
    .text                                    0x080011a4   Section        0  _printf_char.o(.text)
    .text                                    0x080011d0   Section        0  _printf_wchar.o(.text)
    .text                                    0x080011fc   Section        0  ferror.o(.text)
    .text                                    0x08001204   Section        0  _wcrtomb.o(.text)
    .text                                    0x08001244   Section       74  sys_stackheap_outer.o(.text)
    .text                                    0x08001290   Section       16  rt_ctype_table.o(.text)
    .text                                    0x080012a0   Section        8  rt_locale_intlibspace.o(.text)
    .text                                    0x080012a8   Section        0  _printf_fp_infnan.o(.text)
    .text                                    0x08001328   Section        0  bigflt0.o(.text)
    .text                                    0x08001404   Section        0  exit.o(.text)
    .text                                    0x08001410   Section        8  libspace.o(.text)
    .text                                    0x08001418   Section      128  strcmpv7m.o(.text)
    CL$$btod_d2e                             0x08001498   Section       62  btod.o(CL$$btod_d2e)
    CL$$btod_d2e_denorm_low                  0x080014d6   Section       70  btod.o(CL$$btod_d2e_denorm_low)
    CL$$btod_d2e_norm_op1                    0x0800151c   Section       96  btod.o(CL$$btod_d2e_norm_op1)
    CL$$btod_div_common                      0x0800157c   Section      824  btod.o(CL$$btod_div_common)
    CL$$btod_e2e                             0x080018b4   Section      198  btod.o(CL$$btod_e2e)
    CL$$btod_ediv                            0x0800197a   Section       40  btod.o(CL$$btod_ediv)
    CL$$btod_emul                            0x080019a2   Section       40  btod.o(CL$$btod_emul)
    CL$$btod_mult_common                     0x080019ca   Section      580  btod.o(CL$$btod_mult_common)
    i.Adc_Init                               0x08001c10   Section        0  adc.o(i.Adc_Init)
    i.Aux_Int                                0x08001cd4   Section        0  lora_app.o(i.Aux_Int)
    i.ClearBitMask                           0x08001d40   Section        0  rc522.o(i.ClearBitMask)
    i.EXTI9_5_IRQHandler                     0x08001d5c   Section        0  lora_app.o(i.EXTI9_5_IRQHandler)
    i.Ex_NVIC_Config                         0x08001df8   Section        0  sys.o(i.Ex_NVIC_Config)
    i.GPIO_AF_Set                            0x08001eac   Section        0  sys.o(i.GPIO_AF_Set)
    i.GPIO_Set                               0x08001eec   Section        0  sys.o(i.GPIO_Set)
    i.Get_Adc                                0x08001fcc   Section        0  adc.o(i.Get_Adc)
    i.Get_Adc_Average                        0x08002008   Section        0  adc.o(i.Get_Adc_Average)
    i.KEY_Init                               0x08002038   Section        0  key.o(i.KEY_Init)
    i.KEY_Scan                               0x08002088   Section        0  key.o(i.KEY_Scan)
    i.LED_Init                               0x0800210c   Section        0  led.o(i.LED_Init)
    i.LoRa_Init                              0x0800214c   Section        0  lora_app.o(i.LoRa_Init)
    i.LoRa_Process                           0x08002244   Section        0  lora_app.o(i.LoRa_Process)
    i.LoRa_SendData                          0x080022a0   Section        0  lora_app.o(i.LoRa_SendData)
    i.LoRa_Set                               0x08002308   Section        0  lora_app.o(i.LoRa_Set)
    i.Lora_Test                              0x0800234c   Section        0  lora_app.o(i.Lora_Test)
    i.M500PcdConfigISOType                   0x080023d8   Section        0  rc522.o(i.M500PcdConfigISOType)
    i.MY_NVIC_Init                           0x08002434   Section        0  sys.o(i.MY_NVIC_Init)
    i.MY_NVIC_PriorityGroupConfig            0x080024ac   Section        0  sys.o(i.MY_NVIC_PriorityGroupConfig)
    i.MY_NVIC_SetVectorTable                 0x080024d4   Section        0  sys.o(i.MY_NVIC_SetVectorTable)
    i.PcdAntennaOff                          0x080024e4   Section        0  rc522.o(i.PcdAntennaOff)
    i.PcdAntennaOn                           0x080024f0   Section        0  rc522.o(i.PcdAntennaOn)
    i.PcdComMF522                            0x0800250a   Section        0  rc522.o(i.PcdComMF522)
    i.PcdRequest                             0x0800263c   Section        0  rc522.o(i.PcdRequest)
    i.PcdReset                               0x08002690   Section        0  rc522.o(i.PcdReset)
    i.ReadRawRC                              0x08002704   Section        0  rc522.o(i.ReadRawRC)
    i.SPI_Init                               0x08002798   Section        0  rc522.o(i.SPI_Init)
    i.SetBitMask                             0x080027f8   Section        0  rc522.o(i.SetBitMask)
    i.Stm32_Clock_Init                       0x08002814   Section        0  sys.o(i.Stm32_Clock_Init)
    i.Sys_Clock_Set                          0x0800287c   Section        0  sys.o(i.Sys_Clock_Set)
    i.TIM7_IRQHandler                        0x08002988   Section        0  timer.o(i.TIM7_IRQHandler)
    i.TIM7_Int_Init                          0x080029c4   Section        0  timer.o(i.TIM7_Int_Init)
    i.USART1_IRQHandler                      0x08002a1c   Section        0  usart.o(i.USART1_IRQHandler)
    i.USART3_IRQHandler                      0x08002a9c   Section        0  usart3.o(i.USART3_IRQHandler)
    i.WriteRawRC                             0x08002b0c   Section        0  rc522.o(i.WriteRawRC)
    i.__ARM_fpclassify                       0x08002bac   Section        0  fpclassify.o(i.__ARM_fpclassify)
    i._is_digit                              0x08002bdc   Section        0  __printf_wp.o(i._is_digit)
    i._sys_exit                              0x08002bea   Section        0  usart.o(i._sys_exit)
    i.delay_10ms                             0x08002bee   Section        0  rc522.o(i.delay_10ms)
    i.delay_init                             0x08002bfc   Section        0  delay.o(i.delay_init)
    i.delay_ms                               0x08002c3c   Section        0  delay.o(i.delay_ms)
    i.delay_xms                              0x08002c74   Section        0  delay.o(i.delay_xms)
    i.fputc                                  0x08002cb0   Section        0  usart.o(i.fputc)
    i.lora_check_cmd                         0x08002ccc   Section        0  lora_ui.o(i.lora_check_cmd)
    i.lora_send_cmd                          0x08002cf4   Section        0  lora_ui.o(i.lora_send_cmd)
    i.main                                   0x08002d74   Section        0  test.o(i.main)
    i.u3_printf                              0x08002db0   Section        0  usart3.o(i.u3_printf)
    i.uart_init                              0x08002e00   Section        0  usart.o(i.uart_init)
    i.usart3_init                            0x08002f00   Section        0  usart3.o(i.usart3_init)
    locale$$code                             0x08003020   Section       44  lc_numeric_c.o(locale$$code)
    locale$$code                             0x0800304c   Section       44  lc_ctype_c.o(locale$$code)
    x$fpl$d2f                                0x08003078   Section       98  d2f.o(x$fpl$d2f)
    $v0                                      0x08003078   Number         0  d2f.o(x$fpl$d2f)
    x$fpl$dmul                               0x080030dc   Section      340  dmul.o(x$fpl$dmul)
    $v0                                      0x080030dc   Number         0  dmul.o(x$fpl$dmul)
    x$fpl$dnaninf                            0x08003230   Section      156  dnaninf.o(x$fpl$dnaninf)
    $v0                                      0x08003230   Number         0  dnaninf.o(x$fpl$dnaninf)
    x$fpl$dretinf                            0x080032cc   Section       12  dretinf.o(x$fpl$dretinf)
    $v0                                      0x080032cc   Number         0  dretinf.o(x$fpl$dretinf)
    x$fpl$f2d                                0x080032d8   Section       86  f2d.o(x$fpl$f2d)
    $v0                                      0x080032d8   Number         0  f2d.o(x$fpl$f2d)
    x$fpl$fnaninf                            0x0800332e   Section      140  fnaninf.o(x$fpl$fnaninf)
    $v0                                      0x0800332e   Number         0  fnaninf.o(x$fpl$fnaninf)
    x$fpl$fpinit                             0x080033ba   Section       10  fpinit.o(x$fpl$fpinit)
    $v0                                      0x080033ba   Number         0  fpinit.o(x$fpl$fpinit)
    x$fpl$fretinf                            0x080033c4   Section       10  fretinf.o(x$fpl$fretinf)
    $v0                                      0x080033c4   Number         0  fretinf.o(x$fpl$fretinf)
    x$fpl$printf1                            0x080033ce   Section        4  printf1.o(x$fpl$printf1)
    $v0                                      0x080033ce   Number         0  printf1.o(x$fpl$printf1)
    x$fpl$printf2                            0x080033d2   Section        4  printf2.o(x$fpl$printf2)
    $v0                                      0x080033d2   Number         0  printf2.o(x$fpl$printf2)
    .constdata                               0x080033d6   Section       17  __printf_flags_ss_wp.o(.constdata)
    x$fpl$usenofp                            0x080033d6   Section        0  usenofp.o(x$fpl$usenofp)
    maptable                                 0x080033d6   Data          17  __printf_flags_ss_wp.o(.constdata)
    .constdata                               0x080033e8   Section        8  _printf_wctomb.o(.constdata)
    initial_mbstate                          0x080033e8   Data           8  _printf_wctomb.o(.constdata)
    .constdata                               0x080033f0   Section       40  _printf_hex_int_ll_ptr.o(.constdata)
    uc_hextab                                0x080033f0   Data          20  _printf_hex_int_ll_ptr.o(.constdata)
    lc_hextab                                0x08003404   Data          20  _printf_hex_int_ll_ptr.o(.constdata)
    .constdata                               0x08003418   Section       38  _printf_fp_hex.o(.constdata)
    lc_hextab                                0x08003418   Data          19  _printf_fp_hex.o(.constdata)
    uc_hextab                                0x0800342b   Data          19  _printf_fp_hex.o(.constdata)
    .constdata                               0x08003440   Section      148  bigflt0.o(.constdata)
    tenpwrs_x                                0x08003440   Data          60  bigflt0.o(.constdata)
    tenpwrs_i                                0x0800347c   Data          64  bigflt0.o(.constdata)
    locale$$data                             0x080034f4   Section       28  lc_numeric_c.o(locale$$data)
    __lcnum_c_name                           0x080034f8   Data           2  lc_numeric_c.o(locale$$data)
    __lcnum_c_start                          0x08003500   Data           0  lc_numeric_c.o(locale$$data)
    __lcnum_c_point                          0x0800350c   Data           0  lc_numeric_c.o(locale$$data)
    __lcnum_c_thousands                      0x0800350e   Data           0  lc_numeric_c.o(locale$$data)
    __lcnum_c_grouping                       0x0800350f   Data           0  lc_numeric_c.o(locale$$data)
    locale$$data                             0x08003510   Section      272  lc_ctype_c.o(locale$$data)
    __lcnum_c_end                            0x08003510   Data           0  lc_numeric_c.o(locale$$data)
    __lcctype_c_name                         0x08003514   Data           2  lc_ctype_c.o(locale$$data)
    __lcctype_c_start                        0x0800351c   Data           0  lc_ctype_c.o(locale$$data)
    __lcctype_c_end                          0x08003620   Data           0  lc_ctype_c.o(locale$$data)
    .data                                    0x20000000   Section        4  delay.o(.data)
    fac_us                                   0x20000000   Data           1  delay.o(.data)
    fac_ms                                   0x20000002   Data           2  delay.o(.data)
    .data                                    0x20000004   Section        6  usart.o(.data)
    .data                                    0x2000000a   Section        1  key.o(.data)
    key_up                                   0x2000000a   Data           1  key.o(.data)
    .data                                    0x2000000c   Section        2  usart3.o(.data)
    .data                                    0x20000010   Section       26  lora_app.o(.data)
    Int_mode                                 0x2000001b   Data           1  lora_app.o(.data)
    .bss                                     0x2000002c   Section      200  usart.o(.bss)
    .bss                                     0x200000f8   Section     1600  usart3.o(.bss)
    .bss                                     0x20000738   Section       20  lora_app.o(.bss)
    .bss                                     0x2000074c   Section       96  libspace.o(.bss)
    HEAP                                     0x200007b0   Section        0  startup_stm32f40_41xxx.o(HEAP)
    STACK                                    0x200007b0   Section     1024  startup_stm32f40_41xxx.o(STACK)
    Heap_Mem                                 0x200007b0   Data           0  startup_stm32f40_41xxx.o(HEAP)
    Stack_Mem                                0x200007b0   Data        1024  startup_stm32f40_41xxx.o(STACK)
    __initial_sp                             0x20000bb0   Data           0  startup_stm32f40_41xxx.o(STACK)

    Global Symbols

    Symbol Name                              Value     Ov Type        Size  Object(Section)

    BuildAttributes$$THM_ISAv4$E$P$D$K$B$S$7EM$VFPi3$EXTD16$VFPS$VFMA$PE$A:L22UL41UL21$X:L11$S22US41US21$IEEE1$IW$USESV6$~STKCKD$USESV7$~SHL$OTIME$ROPI$IEEEJ$EBA8$UX$STANDARDLIB$REQ8$PRES8$EABIv2 0x00000000   Number         0  anon$$obj.o ABSOLUTE
    __ARM_use_no_argv                        0x00000000   Number         0  test.o ABSOLUTE
    _printf_flags                            0x00000000   Number         0  printf_stubs.o ABSOLUTE
    _printf_return_value                     0x00000000   Number         0  printf_stubs.o ABSOLUTE
    _printf_sizespec                         0x00000000   Number         0  printf_stubs.o ABSOLUTE
    _printf_widthprec                        0x00000000   Number         0  printf_stubs.o ABSOLUTE
    __ARM_exceptions_init                     - Undefined Weak Reference
    __alloca_initialize                       - Undefined Weak Reference
    __arm_preinit_                            - Undefined Weak Reference
    __cpp_initialize__aeabi_                  - Undefined Weak Reference
    __cxa_finalize                            - Undefined Weak Reference
    __sigvec_lookup                           - Undefined Weak Reference
    _atexit_init                              - Undefined Weak Reference
    _call_atexit_fns                          - Undefined Weak Reference
    _clock_init                               - Undefined Weak Reference
    _fp_trap_init                             - Undefined Weak Reference
    _fp_trap_shutdown                         - Undefined Weak Reference
    _get_lc_collate                           - Undefined Weak Reference
    _get_lc_monetary                          - Undefined Weak Reference
    _get_lc_time                              - Undefined Weak Reference
    _getenv_init                              - Undefined Weak Reference
    _handle_redirection                       - Undefined Weak Reference
    _init_alloc                               - Undefined Weak Reference
    _init_user_alloc                          - Undefined Weak Reference
    _initio                                   - Undefined Weak Reference
    _mutex_acquire                            - Undefined Weak Reference
    _mutex_release                            - Undefined Weak Reference
    _printf_mbtowc                            - Undefined Weak Reference
    _printf_wc                                - Undefined Weak Reference
    _rand_init                                - Undefined Weak Reference
    _signal_finish                            - Undefined Weak Reference
    _signal_init                              - Undefined Weak Reference
    _terminate_alloc                          - Undefined Weak Reference
    _terminate_user_alloc                     - Undefined Weak Reference
    _terminateio                              - Undefined Weak Reference
    __Vectors_Size                           0x00000188   Number         0  startup_stm32f40_41xxx.o ABSOLUTE
    __Vectors                                0x08000000   Data           4  startup_stm32f40_41xxx.o(RESET)
    __Vectors_End                            0x08000188   Data           0  startup_stm32f40_41xxx.o(RESET)
    __main                                   0x08000189   Thumb Code     8  __main.o(!!!main)
    __scatterload                            0x08000191   Thumb Code     0  __scatter.o(!!!scatter)
    __scatterload_rt2                        0x08000191   Thumb Code    44  __scatter.o(!!!scatter)
    __scatterload_rt2_thumb_only             0x08000191   Thumb Code     0  __scatter.o(!!!scatter)
    __scatterload_null                       0x0800019f   Thumb Code     0  __scatter.o(!!!scatter)
    __scatterload_copy                       0x080001c5   Thumb Code    26  __scatter_copy.o(!!handler_copy)
    __scatterload_zeroinit                   0x080001e1   Thumb Code    28  __scatter_zi.o(!!handler_zi)
    _printf_n                                0x080001fd   Thumb Code     0  _printf_n.o(.ARM.Collect$$_printf_percent$$00000001)
    _printf_percent                          0x080001fd   Thumb Code     0  _printf_percent.o(.ARM.Collect$$_printf_percent$$00000000)
    _printf_p                                0x08000203   Thumb Code     0  _printf_p.o(.ARM.Collect$$_printf_percent$$00000002)
    _printf_f                                0x08000209   Thumb Code     0  _printf_f.o(.ARM.Collect$$_printf_percent$$00000003)
    _printf_e                                0x0800020f   Thumb Code     0  _printf_e.o(.ARM.Collect$$_printf_percent$$00000004)
    _printf_g                                0x08000215   Thumb Code     0  _printf_g.o(.ARM.Collect$$_printf_percent$$00000005)
    _printf_a                                0x0800021b   Thumb Code     0  _printf_a.o(.ARM.Collect$$_printf_percent$$00000006)
    _printf_ll                               0x08000221   Thumb Code     0  _printf_ll.o(.ARM.Collect$$_printf_percent$$00000007)
    _printf_i                                0x0800022b   Thumb Code     0  _printf_i.o(.ARM.Collect$$_printf_percent$$00000008)
    _printf_d                                0x08000231   Thumb Code     0  _printf_d.o(.ARM.Collect$$_printf_percent$$00000009)
    _printf_u                                0x08000237   Thumb Code     0  _printf_u.o(.ARM.Collect$$_printf_percent$$0000000A)
    _printf_o                                0x0800023d   Thumb Code     0  _printf_o.o(.ARM.Collect$$_printf_percent$$0000000B)
    _printf_x                                0x08000243   Thumb Code     0  _printf_x.o(.ARM.Collect$$_printf_percent$$0000000C)
    _printf_lli                              0x08000249   Thumb Code     0  _printf_lli.o(.ARM.Collect$$_printf_percent$$0000000D)
    _printf_lld                              0x0800024f   Thumb Code     0  _printf_lld.o(.ARM.Collect$$_printf_percent$$0000000E)
    _printf_llu                              0x08000255   Thumb Code     0  _printf_llu.o(.ARM.Collect$$_printf_percent$$0000000F)
    _printf_llo                              0x0800025b   Thumb Code     0  _printf_llo.o(.ARM.Collect$$_printf_percent$$00000010)
    _printf_llx                              0x08000261   Thumb Code     0  _printf_llx.o(.ARM.Collect$$_printf_percent$$00000011)
    _printf_l                                0x08000267   Thumb Code     0  _printf_l.o(.ARM.Collect$$_printf_percent$$00000012)
    _printf_c                                0x08000271   Thumb Code     0  _printf_c.o(.ARM.Collect$$_printf_percent$$00000013)
    _printf_s                                0x08000277   Thumb Code     0  _printf_s.o(.ARM.Collect$$_printf_percent$$00000014)
    _printf_lc                               0x0800027d   Thumb Code     0  _printf_lc.o(.ARM.Collect$$_printf_percent$$00000015)
    _printf_ls                               0x08000283   Thumb Code     0  _printf_ls.o(.ARM.Collect$$_printf_percent$$00000016)
    _printf_percent_end                      0x08000289   Thumb Code     0  _printf_percent_end.o(.ARM.Collect$$_printf_percent$$00000017)
    __rt_lib_init                            0x0800028d   Thumb Code     0  libinit.o(.ARM.Collect$$libinit$$00000000)
    __rt_lib_init_fp_1                       0x0800028f   Thumb Code     0  libinit2.o(.ARM.Collect$$libinit$$00000001)
    __rt_lib_init_heap_1                     0x08000293   Thumb Code     0  libinit2.o(.ARM.Collect$$libinit$$0000000A)
    __rt_lib_init_lc_common                  0x08000293   Thumb Code     0  libinit2.o(.ARM.Collect$$libinit$$0000000F)
    __rt_lib_init_preinit_1                  0x08000293   Thumb Code     0  libinit2.o(.ARM.Collect$$libinit$$00000004)
    __rt_lib_init_rand_1                     0x08000293   Thumb Code     0  libinit2.o(.ARM.Collect$$libinit$$0000000E)
    __rt_lib_init_user_alloc_1               0x08000293   Thumb Code     0  libinit2.o(.ARM.Collect$$libinit$$0000000C)
    __rt_lib_init_lc_collate_1               0x08000299   Thumb Code     0  libinit2.o(.ARM.Collect$$libinit$$00000011)
    __rt_lib_init_lc_ctype_2                 0x08000299   Thumb Code     0  libinit2.o(.ARM.Collect$$libinit$$00000012)
    __rt_lib_init_lc_ctype_1                 0x080002a5   Thumb Code     0  libinit2.o(.ARM.Collect$$libinit$$00000013)
    __rt_lib_init_lc_monetary_1              0x080002a5   Thumb Code     0  libinit2.o(.ARM.Collect$$libinit$$00000015)
    __rt_lib_init_lc_numeric_2               0x080002a5   Thumb Code     0  libinit2.o(.ARM.Collect$$libinit$$00000016)
    __rt_lib_init_alloca_1                   0x080002af   Thumb Code     0  libinit2.o(.ARM.Collect$$libinit$$0000002E)
    __rt_lib_init_argv_1                     0x080002af   Thumb Code     0  libinit2.o(.ARM.Collect$$libinit$$0000002C)
    __rt_lib_init_atexit_1                   0x080002af   Thumb Code     0  libinit2.o(.ARM.Collect$$libinit$$0000001B)
    __rt_lib_init_clock_1                    0x080002af   Thumb Code     0  libinit2.o(.ARM.Collect$$libinit$$00000021)
    __rt_lib_init_cpp_1                      0x080002af   Thumb Code     0  libinit2.o(.ARM.Collect$$libinit$$00000032)
    __rt_lib_init_exceptions_1               0x080002af   Thumb Code     0  libinit2.o(.ARM.Collect$$libinit$$00000030)
    __rt_lib_init_fp_trap_1                  0x080002af   Thumb Code     0  libinit2.o(.ARM.Collect$$libinit$$0000001F)
    __rt_lib_init_getenv_1                   0x080002af   Thumb Code     0  libinit2.o(.ARM.Collect$$libinit$$00000023)
    __rt_lib_init_lc_numeric_1               0x080002af   Thumb Code     0  libinit2.o(.ARM.Collect$$libinit$$00000017)
    __rt_lib_init_lc_time_1                  0x080002af   Thumb Code     0  libinit2.o(.ARM.Collect$$libinit$$00000019)
    __rt_lib_init_return                     0x080002af   Thumb Code     0  libinit2.o(.ARM.Collect$$libinit$$00000033)
    __rt_lib_init_signal_1                   0x080002af   Thumb Code     0  libinit2.o(.ARM.Collect$$libinit$$0000001D)
    __rt_lib_init_stdio_1                    0x080002af   Thumb Code     0  libinit2.o(.ARM.Collect$$libinit$$00000025)
    __rt_lib_shutdown                        0x080002b1   Thumb Code     0  libshutdown.o(.ARM.Collect$$libshutdown$$00000000)
    __rt_lib_shutdown_fp_trap_1              0x080002b3   Thumb Code     0  libshutdown2.o(.ARM.Collect$$libshutdown$$00000006)
    __rt_lib_shutdown_heap_1                 0x080002b3   Thumb Code     0  libshutdown2.o(.ARM.Collect$$libshutdown$$0000000E)
    __rt_lib_shutdown_return                 0x080002b3   Thumb Code     0  libshutdown2.o(.ARM.Collect$$libshutdown$$0000000F)
    __rt_lib_shutdown_signal_1               0x080002b3   Thumb Code     0  libshutdown2.o(.ARM.Collect$$libshutdown$$00000009)
    __rt_lib_shutdown_stdio_1                0x080002b3   Thumb Code     0  libshutdown2.o(.ARM.Collect$$libshutdown$$00000003)
    __rt_lib_shutdown_user_alloc_1           0x080002b3   Thumb Code     0  libshutdown2.o(.ARM.Collect$$libshutdown$$0000000B)
    __rt_entry                               0x080002b5   Thumb Code     0  __rtentry.o(.ARM.Collect$$rtentry$$00000000)
    __rt_entry_presh_1                       0x080002b5   Thumb Code     0  __rtentry2.o(.ARM.Collect$$rtentry$$00000002)
    __rt_entry_sh                            0x080002b5   Thumb Code     0  __rtentry4.o(.ARM.Collect$$rtentry$$00000004)
    __rt_entry_li                            0x080002bb   Thumb Code     0  __rtentry2.o(.ARM.Collect$$rtentry$$0000000A)
    __rt_entry_postsh_1                      0x080002bb   Thumb Code     0  __rtentry2.o(.ARM.Collect$$rtentry$$00000009)
    __rt_entry_main                          0x080002bf   Thumb Code     0  __rtentry2.o(.ARM.Collect$$rtentry$$0000000D)
    __rt_entry_postli_1                      0x080002bf   Thumb Code     0  __rtentry2.o(.ARM.Collect$$rtentry$$0000000C)
    __rt_exit                                0x080002c7   Thumb Code     0  rtexit.o(.ARM.Collect$$rtexit$$00000000)
    __rt_exit_ls                             0x080002c9   Thumb Code     0  rtexit2.o(.ARM.Collect$$rtexit$$00000003)
    __rt_exit_prels_1                        0x080002c9   Thumb Code     0  rtexit2.o(.ARM.Collect$$rtexit$$00000002)
    __rt_exit_exit                           0x080002cd   Thumb Code     0  rtexit2.o(.ARM.Collect$$rtexit$$00000004)
    Reset_Handler                            0x080002d5   Thumb Code    14  startup_stm32f40_41xxx.o(.text)
    NMI_Handler                              0x080002e3   Thumb Code     2  startup_stm32f40_41xxx.o(.text)
    HardFault_Handler                        0x080002e5   Thumb Code     2  startup_stm32f40_41xxx.o(.text)
    MemManage_Handler                        0x080002e7   Thumb Code     2  startup_stm32f40_41xxx.o(.text)
    BusFault_Handler                         0x080002e9   Thumb Code     2  startup_stm32f40_41xxx.o(.text)
    UsageFault_Handler                       0x080002eb   Thumb Code     2  startup_stm32f40_41xxx.o(.text)
    SVC_Handler                              0x080002ed   Thumb Code     2  startup_stm32f40_41xxx.o(.text)
    DebugMon_Handler                         0x080002ef   Thumb Code     2  startup_stm32f40_41xxx.o(.text)
    PendSV_Handler                           0x080002f1   Thumb Code     2  startup_stm32f40_41xxx.o(.text)
    SysTick_Handler                          0x080002f3   Thumb Code     2  startup_stm32f40_41xxx.o(.text)
    ADC_IRQHandler                           0x080002f5   Thumb Code     0  startup_stm32f40_41xxx.o(.text)
    CAN1_RX0_IRQHandler                      0x080002f5   Thumb Code     0  startup_stm32f40_41xxx.o(.text)
    CAN1_RX1_IRQHandler                      0x080002f5   Thumb Code     0  startup_stm32f40_41xxx.o(.text)
    CAN1_SCE_IRQHandler                      0x080002f5   Thumb Code     0  startup_stm32f40_41xxx.o(.text)
    CAN1_TX_IRQHandler                       0x080002f5   Thumb Code     0  startup_stm32f40_41xxx.o(.text)
    CAN2_RX0_IRQHandler                      0x080002f5   Thumb Code     0  startup_stm32f40_41xxx.o(.text)
    CAN2_RX1_IRQHandler                      0x080002f5   Thumb Code     0  startup_stm32f40_41xxx.o(.text)
    CAN2_SCE_IRQHandler                      0x080002f5   Thumb Code     0  startup_stm32f40_41xxx.o(.text)
    CAN2_TX_IRQHandler                       0x080002f5   Thumb Code     0  startup_stm32f40_41xxx.o(.text)
    CRYP_IRQHandler                          0x080002f5   Thumb Code     0  startup_stm32f40_41xxx.o(.text)
    DCMI_IRQHandler                          0x080002f5   Thumb Code     0  startup_stm32f40_41xxx.o(.text)
    DMA1_Stream0_IRQHandler                  0x080002f5   Thumb Code     0  startup_stm32f40_41xxx.o(.text)
    DMA1_Stream1_IRQHandler                  0x080002f5   Thumb Code     0  startup_stm32f40_41xxx.o(.text)
    DMA1_Stream2_IRQHandler                  0x080002f5   Thumb Code     0  startup_stm32f40_41xxx.o(.text)
    DMA1_Stream3_IRQHandler                  0x080002f5   Thumb Code     0  startup_stm32f40_41xxx.o(.text)
    DMA1_Stream4_IRQHandler                  0x080002f5   Thumb Code     0  startup_stm32f40_41xxx.o(.text)
    DMA1_Stream5_IRQHandler                  0x080002f5   Thumb Code     0  startup_stm32f40_41xxx.o(.text)
    DMA1_Stream6_IRQHandler                  0x080002f5   Thumb Code     0  startup_stm32f40_41xxx.o(.text)
    DMA1_Stream7_IRQHandler                  0x080002f5   Thumb Code     0  startup_stm32f40_41xxx.o(.text)
    DMA2_Stream0_IRQHandler                  0x080002f5   Thumb Code     0  startup_stm32f40_41xxx.o(.text)
    DMA2_Stream1_IRQHandler                  0x080002f5   Thumb Code     0  startup_stm32f40_41xxx.o(.text)
    DMA2_Stream2_IRQHandler                  0x080002f5   Thumb Code     0  startup_stm32f40_41xxx.o(.text)
    DMA2_Stream3_IRQHandler                  0x080002f5   Thumb Code     0  startup_stm32f40_41xxx.o(.text)
    DMA2_Stream4_IRQHandler                  0x080002f5   Thumb Code     0  startup_stm32f40_41xxx.o(.text)
    DMA2_Stream5_IRQHandler                  0x080002f5   Thumb Code     0  startup_stm32f40_41xxx.o(.text)
    DMA2_Stream6_IRQHandler                  0x080002f5   Thumb Code     0  startup_stm32f40_41xxx.o(.text)
    DMA2_Stream7_IRQHandler                  0x080002f5   Thumb Code     0  startup_stm32f40_41xxx.o(.text)
    ETH_IRQHandler                           0x080002f5   Thumb Code     0  startup_stm32f40_41xxx.o(.text)
    ETH_WKUP_IRQHandler                      0x080002f5   Thumb Code     0  startup_stm32f40_41xxx.o(.text)
    EXTI0_IRQHandler                         0x080002f5   Thumb Code     0  startup_stm32f40_41xxx.o(.text)
    EXTI15_10_IRQHandler                     0x080002f5   Thumb Code     0  startup_stm32f40_41xxx.o(.text)
    EXTI1_IRQHandler                         0x080002f5   Thumb Code     0  startup_stm32f40_41xxx.o(.text)
    EXTI2_IRQHandler                         0x080002f5   Thumb Code     0  startup_stm32f40_41xxx.o(.text)
    EXTI3_IRQHandler                         0x080002f5   Thumb Code     0  startup_stm32f40_41xxx.o(.text)
    EXTI4_IRQHandler                         0x080002f5   Thumb Code     0  startup_stm32f40_41xxx.o(.text)
    FLASH_IRQHandler                         0x080002f5   Thumb Code     0  startup_stm32f40_41xxx.o(.text)
    FPU_IRQHandler                           0x080002f5   Thumb Code     0  startup_stm32f40_41xxx.o(.text)
    FSMC_IRQHandler                          0x080002f5   Thumb Code     0  startup_stm32f40_41xxx.o(.text)
    HASH_RNG_IRQHandler                      0x080002f5   Thumb Code     0  startup_stm32f40_41xxx.o(.text)
    I2C1_ER_IRQHandler                       0x080002f5   Thumb Code     0  startup_stm32f40_41xxx.o(.text)
    I2C1_EV_IRQHandler                       0x080002f5   Thumb Code     0  startup_stm32f40_41xxx.o(.text)
    I2C2_ER_IRQHandler                       0x080002f5   Thumb Code     0  startup_stm32f40_41xxx.o(.text)
    I2C2_EV_IRQHandler                       0x080002f5   Thumb Code     0  startup_stm32f40_41xxx.o(.text)
    I2C3_ER_IRQHandler                       0x080002f5   Thumb Code     0  startup_stm32f40_41xxx.o(.text)
    I2C3_EV_IRQHandler                       0x080002f5   Thumb Code     0  startup_stm32f40_41xxx.o(.text)
    OTG_FS_IRQHandler                        0x080002f5   Thumb Code     0  startup_stm32f40_41xxx.o(.text)
    OTG_FS_WKUP_IRQHandler                   0x080002f5   Thumb Code     0  startup_stm32f40_41xxx.o(.text)
    OTG_HS_EP1_IN_IRQHandler                 0x080002f5   Thumb Code     0  startup_stm32f40_41xxx.o(.text)
    OTG_HS_EP1_OUT_IRQHandler                0x080002f5   Thumb Code     0  startup_stm32f40_41xxx.o(.text)
    OTG_HS_IRQHandler                        0x080002f5   Thumb Code     0  startup_stm32f40_41xxx.o(.text)
    OTG_HS_WKUP_IRQHandler                   0x080002f5   Thumb Code     0  startup_stm32f40_41xxx.o(.text)
    PVD_IRQHandler                           0x080002f5   Thumb Code     0  startup_stm32f40_41xxx.o(.text)
    RCC_IRQHandler                           0x080002f5   Thumb Code     0  startup_stm32f40_41xxx.o(.text)
    RTC_Alarm_IRQHandler                     0x080002f5   Thumb Code     0  startup_stm32f40_41xxx.o(.text)
    RTC_WKUP_IRQHandler                      0x080002f5   Thumb Code     0  startup_stm32f40_41xxx.o(.text)
    SDIO_IRQHandler                          0x080002f5   Thumb Code     0  startup_stm32f40_41xxx.o(.text)
    SPI1_IRQHandler                          0x080002f5   Thumb Code     0  startup_stm32f40_41xxx.o(.text)
    SPI2_IRQHandler                          0x080002f5   Thumb Code     0  startup_stm32f40_41xxx.o(.text)
    SPI3_IRQHandler                          0x080002f5   Thumb Code     0  startup_stm32f40_41xxx.o(.text)
    TAMP_STAMP_IRQHandler                    0x080002f5   Thumb Code     0  startup_stm32f40_41xxx.o(.text)
    TIM1_BRK_TIM9_IRQHandler                 0x080002f5   Thumb Code     0  startup_stm32f40_41xxx.o(.text)
    TIM1_CC_IRQHandler                       0x080002f5   Thumb Code     0  startup_stm32f40_41xxx.o(.text)
    TIM1_TRG_COM_TIM11_IRQHandler            0x080002f5   Thumb Code     0  startup_stm32f40_41xxx.o(.text)
    TIM1_UP_TIM10_IRQHandler                 0x080002f5   Thumb Code     0  startup_stm32f40_41xxx.o(.text)
    TIM2_IRQHandler                          0x080002f5   Thumb Code     0  startup_stm32f40_41xxx.o(.text)
    TIM3_IRQHandler                          0x080002f5   Thumb Code     0  startup_stm32f40_41xxx.o(.text)
    TIM4_IRQHandler                          0x080002f5   Thumb Code     0  startup_stm32f40_41xxx.o(.text)
    TIM5_IRQHandler                          0x080002f5   Thumb Code     0  startup_stm32f40_41xxx.o(.text)
    TIM6_DAC_IRQHandler                      0x080002f5   Thumb Code     0  startup_stm32f40_41xxx.o(.text)
    TIM8_BRK_TIM12_IRQHandler                0x080002f5   Thumb Code     0  startup_stm32f40_41xxx.o(.text)
    TIM8_CC_IRQHandler                       0x080002f5   Thumb Code     0  startup_stm32f40_41xxx.o(.text)
    TIM8_TRG_COM_TIM14_IRQHandler            0x080002f5   Thumb Code     0  startup_stm32f40_41xxx.o(.text)
    TIM8_UP_TIM13_IRQHandler                 0x080002f5   Thumb Code     0  startup_stm32f40_41xxx.o(.text)
    UART4_IRQHandler                         0x080002f5   Thumb Code     0  startup_stm32f40_41xxx.o(.text)
    UART5_IRQHandler                         0x080002f5   Thumb Code     0  startup_stm32f40_41xxx.o(.text)
    USART2_IRQHandler                        0x080002f5   Thumb Code     0  startup_stm32f40_41xxx.o(.text)
    USART6_IRQHandler                        0x080002f5   Thumb Code     0  startup_stm32f40_41xxx.o(.text)
    WWDG_IRQHandler                          0x080002f5   Thumb Code     0  startup_stm32f40_41xxx.o(.text)
    __user_initial_stackheap                 0x080002f9   Thumb Code     0  startup_stm32f40_41xxx.o(.text)
    __use_no_semihosting                     0x08000319   Thumb Code     2  use_no_semi_2.o(.text)
    vsprintf                                 0x0800031d   Thumb Code    32  vsprintf.o(.text)
    __2printf                                0x08000341   Thumb Code    20  __2printf.o(.text)
    __2sprintf                               0x08000359   Thumb Code    38  __2sprintf.o(.text)
    _printf_int_dec                          0x08000385   Thumb Code   104  _printf_dec.o(.text)
    __printf                                 0x080003fd   Thumb Code   388  __printf_flags_ss_wp.o(.text)
    strlen                                   0x08000585   Thumb Code    62  strlen.o(.text)
    __use_two_region_memory                  0x080005c3   Thumb Code     2  heapauxi.o(.text)
    __rt_heap_escrow$2region                 0x080005c5   Thumb Code     2  heapauxi.o(.text)
    __rt_heap_expand$2region                 0x080005c7   Thumb Code     2  heapauxi.o(.text)
    __I$use$semihosting                      0x080005c9   Thumb Code     0  use_no_semi.o(.text)
    __use_no_semihosting_swi                 0x080005c9   Thumb Code     2  use_no_semi.o(.text)
    _printf_pre_padding                      0x080005cb   Thumb Code    44  _printf_pad.o(.text)
    _printf_post_padding                     0x080005f7   Thumb Code    34  _printf_pad.o(.text)
    _printf_truncate_signed                  0x08000619   Thumb Code    18  _printf_truncate.o(.text)
    _printf_truncate_unsigned                0x0800062b   Thumb Code    18  _printf_truncate.o(.text)
    _printf_str                              0x0800063d   Thumb Code    82  _printf_str.o(.text)
    _printf_int_common                       0x0800068f   Thumb Code   178  _printf_intcommon.o(.text)
    _printf_charcount                        0x08000741   Thumb Code    40  _printf_charcount.o(.text)
    _printf_char_common                      0x08000773   Thumb Code    32  _printf_char_common.o(.text)
    _sputc                                   0x08000799   Thumb Code    10  _sputc.o(.text)
    _printf_char_file                        0x080007a5   Thumb Code    32  _printf_char_file.o(.text)
    _printf_wctomb                           0x080007c9   Thumb Code   182  _printf_wctomb.o(.text)
    _printf_longlong_dec                     0x08000885   Thumb Code   108  _printf_longlong_dec.o(.text)
    _printf_longlong_oct                     0x08000901   Thumb Code    68  _printf_oct_int_ll.o(.text)
    _printf_int_oct                          0x08000945   Thumb Code    24  _printf_oct_int_ll.o(.text)
    _printf_ll_oct                           0x0800095d   Thumb Code    12  _printf_oct_int_ll.o(.text)
    _printf_longlong_hex                     0x08000971   Thumb Code    86  _printf_hex_int_ll_ptr.o(.text)
    _printf_int_hex                          0x080009c7   Thumb Code    28  _printf_hex_int_ll_ptr.o(.text)
    _printf_ll_hex                           0x080009e3   Thumb Code    12  _printf_hex_int_ll_ptr.o(.text)
    _printf_hex_ptr                          0x080009ef   Thumb Code    18  _printf_hex_int_ll_ptr.o(.text)
    _ll_udiv10                               0x08000a05   Thumb Code   138  lludiv10.o(.text)
    __lib_sel_fp_printf                      0x08000a8f   Thumb Code     2  _printf_fp_dec.o(.text)
    _printf_fp_dec_real                      0x08000c3d   Thumb Code   620  _printf_fp_dec.o(.text)
    _printf_fp_hex_real                      0x08000ea9   Thumb Code   754  _printf_fp_hex.o(.text)
    _printf_cs_common                        0x080011a5   Thumb Code    20  _printf_char.o(.text)
    _printf_char                             0x080011b9   Thumb Code    16  _printf_char.o(.text)
    _printf_string                           0x080011c9   Thumb Code     8  _printf_char.o(.text)
    _printf_lcs_common                       0x080011d1   Thumb Code    20  _printf_wchar.o(.text)
    _printf_wchar                            0x080011e5   Thumb Code    16  _printf_wchar.o(.text)
    _printf_wstring                          0x080011f5   Thumb Code     8  _printf_wchar.o(.text)
    ferror                                   0x080011fd   Thumb Code     8  ferror.o(.text)
    _wcrtomb                                 0x08001205   Thumb Code    64  _wcrtomb.o(.text)
    __user_setup_stackheap                   0x08001245   Thumb Code    74  sys_stackheap_outer.o(.text)
    __rt_ctype_table                         0x08001291   Thumb Code    16  rt_ctype_table.o(.text)
    __rt_locale                              0x080012a1   Thumb Code     8  rt_locale_intlibspace.o(.text)
    _printf_fp_infnan                        0x080012a9   Thumb Code   112  _printf_fp_infnan.o(.text)
    _btod_etento                             0x08001329   Thumb Code   216  bigflt0.o(.text)
    exit                                     0x08001405   Thumb Code    12  exit.o(.text)
    __user_libspace                          0x08001411   Thumb Code     8  libspace.o(.text)
    __user_perproc_libspace                  0x08001411   Thumb Code     0  libspace.o(.text)
    __user_perthread_libspace                0x08001411   Thumb Code     0  libspace.o(.text)
    strcmp                                   0x08001419   Thumb Code   128  strcmpv7m.o(.text)
    _btod_d2e                                0x08001499   Thumb Code    62  btod.o(CL$$btod_d2e)
    _d2e_denorm_low                          0x080014d7   Thumb Code    70  btod.o(CL$$btod_d2e_denorm_low)
    _d2e_norm_op1                            0x0800151d   Thumb Code    96  btod.o(CL$$btod_d2e_norm_op1)
    __btod_div_common                        0x0800157d   Thumb Code   696  btod.o(CL$$btod_div_common)
    _e2e                                     0x080018b5   Thumb Code   198  btod.o(CL$$btod_e2e)
    _btod_ediv                               0x0800197b   Thumb Code    40  btod.o(CL$$btod_ediv)
    _btod_emul                               0x080019a3   Thumb Code    40  btod.o(CL$$btod_emul)
    __btod_mult_common                       0x080019cb   Thumb Code   580  btod.o(CL$$btod_mult_common)
    Adc_Init                                 0x08001c11   Thumb Code   178  adc.o(i.Adc_Init)
    Aux_Int                                  0x08001cd5   Thumb Code    94  lora_app.o(i.Aux_Int)
    ClearBitMask                             0x08001d41   Thumb Code    28  rc522.o(i.ClearBitMask)
    EXTI9_5_IRQHandler                       0x08001d5d   Thumb Code   136  lora_app.o(i.EXTI9_5_IRQHandler)
    Ex_NVIC_Config                           0x08001df9   Thumb Code   168  sys.o(i.Ex_NVIC_Config)
    GPIO_AF_Set                              0x08001ead   Thumb Code    64  sys.o(i.GPIO_AF_Set)
    GPIO_Set                                 0x08001eed   Thumb Code   222  sys.o(i.GPIO_Set)
    Get_Adc                                  0x08001fcd   Thumb Code    54  adc.o(i.Get_Adc)
    Get_Adc_Average                          0x08002009   Thumb Code    46  adc.o(i.Get_Adc_Average)
    KEY_Init                                 0x08002039   Thumb Code    66  key.o(i.KEY_Init)
    KEY_Scan                                 0x08002089   Thumb Code   120  key.o(i.KEY_Scan)
    LED_Init                                 0x0800210d   Thumb Code    48  led.o(i.LED_Init)
    LoRa_Init                                0x0800214d   Thumb Code   196  lora_app.o(i.LoRa_Init)
    LoRa_Process                             0x08002245   Thumb Code    80  lora_app.o(i.LoRa_Process)
    LoRa_SendData                            0x080022a1   Thumb Code    84  lora_app.o(i.LoRa_SendData)
    LoRa_Set                                 0x08002309   Thumb Code    48  lora_app.o(i.LoRa_Set)
    Lora_Test                                0x0800234d   Thumb Code   100  lora_app.o(i.Lora_Test)
    M500PcdConfigISOType                     0x080023d9   Thumb Code    92  rc522.o(i.M500PcdConfigISOType)
    MY_NVIC_Init                             0x08002435   Thumb Code   116  sys.o(i.MY_NVIC_Init)
    MY_NVIC_PriorityGroupConfig              0x080024ad   Thumb Code    32  sys.o(i.MY_NVIC_PriorityGroupConfig)
    MY_NVIC_SetVectorTable                   0x080024d5   Thumb Code    12  sys.o(i.MY_NVIC_SetVectorTable)
    PcdAntennaOff                            0x080024e5   Thumb Code    12  rc522.o(i.PcdAntennaOff)
    PcdAntennaOn                             0x080024f1   Thumb Code    26  rc522.o(i.PcdAntennaOn)
    PcdComMF522                              0x0800250b   Thumb Code   306  rc522.o(i.PcdComMF522)
    PcdRequest                               0x0800263d   Thumb Code    84  rc522.o(i.PcdRequest)
    PcdReset                                 0x08002691   Thumb Code   106  rc522.o(i.PcdReset)
    ReadRawRC                                0x08002705   Thumb Code   138  rc522.o(i.ReadRawRC)
    SPI_Init                                 0x08002799   Thumb Code    78  rc522.o(i.SPI_Init)
    SetBitMask                               0x080027f9   Thumb Code    28  rc522.o(i.SetBitMask)
    Stm32_Clock_Init                         0x08002815   Thumb Code    90  sys.o(i.Stm32_Clock_Init)
    Sys_Clock_Set                            0x0800287d   Thumb Code   254  sys.o(i.Sys_Clock_Set)
    TIM7_IRQHandler                          0x08002989   Thumb Code    52  timer.o(i.TIM7_IRQHandler)
    TIM7_Int_Init                            0x080029c5   Thumb Code    80  timer.o(i.TIM7_Int_Init)
    USART1_IRQHandler                        0x08002a1d   Thumb Code   116  usart.o(i.USART1_IRQHandler)
    USART3_IRQHandler                        0x08002a9d   Thumb Code    96  usart3.o(i.USART3_IRQHandler)
    WriteRawRC                               0x08002b0d   Thumb Code   152  rc522.o(i.WriteRawRC)
    __ARM_fpclassify                         0x08002bad   Thumb Code    48  fpclassify.o(i.__ARM_fpclassify)
    _is_digit                                0x08002bdd   Thumb Code    14  __printf_wp.o(i._is_digit)
    _sys_exit                                0x08002beb   Thumb Code     4  usart.o(i._sys_exit)
    delay_10ms                               0x08002bef   Thumb Code    12  rc522.o(i.delay_10ms)
    delay_init                               0x08002bfd   Thumb Code    56  delay.o(i.delay_init)
    delay_ms                                 0x08002c3d   Thumb Code    56  delay.o(i.delay_ms)
    delay_xms                                0x08002c75   Thumb Code    56  delay.o(i.delay_xms)
    fputc                                    0x08002cb1   Thumb Code    22  usart.o(i.fputc)
    lora_check_cmd                           0x08002ccd   Thumb Code    30  lora_ui.o(i.lora_check_cmd)
    lora_send_cmd                            0x08002cf5   Thumb Code   110  lora_ui.o(i.lora_send_cmd)
    main                                     0x08002d75   Thumb Code    58  test.o(i.main)
    u3_printf                                0x08002db1   Thumb Code    72  usart3.o(i.u3_printf)
    uart_init                                0x08002e01   Thumb Code   240  usart.o(i.uart_init)
    usart3_init                              0x08002f01   Thumb Code   262  usart3.o(i.usart3_init)
    _get_lc_numeric                          0x08003021   Thumb Code    44  lc_numeric_c.o(locale$$code)
    _get_lc_ctype                            0x0800304d   Thumb Code    44  lc_ctype_c.o(locale$$code)
    __aeabi_d2f                              0x08003079   Thumb Code     0  d2f.o(x$fpl$d2f)
    _d2f                                     0x08003079   Thumb Code    98  d2f.o(x$fpl$d2f)
    __aeabi_dmul                             0x080030dd   Thumb Code     0  dmul.o(x$fpl$dmul)
    _dmul                                    0x080030dd   Thumb Code   332  dmul.o(x$fpl$dmul)
    __fpl_dnaninf                            0x08003231   Thumb Code   156  dnaninf.o(x$fpl$dnaninf)
    __fpl_dretinf                            0x080032cd   Thumb Code    12  dretinf.o(x$fpl$dretinf)
    __aeabi_f2d                              0x080032d9   Thumb Code     0  f2d.o(x$fpl$f2d)
    _f2d                                     0x080032d9   Thumb Code    86  f2d.o(x$fpl$f2d)
    __fpl_fnaninf                            0x0800332f   Thumb Code   140  fnaninf.o(x$fpl$fnaninf)
    _fp_init                                 0x080033bb   Thumb Code    10  fpinit.o(x$fpl$fpinit)
    __fplib_config_fpu_vfp                   0x080033c3   Thumb Code     0  fpinit.o(x$fpl$fpinit)
    __fplib_config_pureend_doubles           0x080033c3   Thumb Code     0  fpinit.o(x$fpl$fpinit)
    __fpl_fretinf                            0x080033c5   Thumb Code    10  fretinf.o(x$fpl$fretinf)
    _printf_fp_dec                           0x080033cf   Thumb Code     4  printf1.o(x$fpl$printf1)
    _printf_fp_hex                           0x080033d3   Thumb Code     4  printf2.o(x$fpl$printf2)
    __I$use$fp                               0x080033d6   Number         0  usenofp.o(x$fpl$usenofp)
    Region$$Table$$Base                      0x080034d4   Number         0  anon$$obj.o(Region$$Table)
    Region$$Table$$Limit                     0x080034f4   Number         0  anon$$obj.o(Region$$Table)
    __ctype                                  0x0800351d   Data           0  lc_ctype_c.o(locale$$data)
    __stdout                                 0x20000004   Data           4  usart.o(.data)
    USART_RX_STA                             0x20000008   Data           2  usart.o(.data)
    USART3_RX_STA                            0x2000000c   Data           2  usart3.o(.data)
    LoRa_CFG                                 0x20000010   Data          10  lora_app.o(.data)
    Lora_mode                                0x2000001a   Data           1  lora_app.o(.data)
    status                                   0x2000001c   Data           1  lora_app.o(.data)
    i                                        0x2000001d   Data           1  lora_app.o(.data)
    temp                                     0x20000020   Data           4  lora_app.o(.data)
    Tran_Data                                0x20000024   Data           6  lora_app.o(.data)
    USART_RX_BUF                             0x2000002c   Data         200  usart.o(.bss)
    USART3_TX_BUF                            0x200000f8   Data         800  usart3.o(.bss)
    USART3_RX_BUF                            0x20000418   Data         800  usart3.o(.bss)
    g_ucTempbuf                              0x20000738   Data          20  lora_app.o(.bss)
    __libspace_start                         0x2000074c   Data          96  libspace.o(.bss)
    __temporary_stack_top$libspace           0x200007ac   Data           0  libspace.o(.bss)



==============================================================================

Memory Map of the image

  Image Entry point : 0x08000189

  Load Region LR_IROM1 (Base: 0x08000000, Size: 0x0000364c, Max: 0x00080000, ABSOLUTE)

    Execution Region ER_IROM1 (Base: 0x08000000, Size: 0x00003620, Max: 0x00080000, ABSOLUTE)

    Base Addr    Size         Type   Attr      Idx    E Section Name        Object

    0x08000000   0x00000188   Data   RO            3    RESET               startup_stm32f40_41xxx.o
    0x08000188   0x00000008   Code   RO          718  * !!!main             c_w.l(__main.o)
    0x08000190   0x00000034   Code   RO         1030    !!!scatter          c_w.l(__scatter.o)
    0x080001c4   0x0000001a   Code   RO         1032    !!handler_copy      c_w.l(__scatter_copy.o)
    0x080001de   0x00000002   PAD
    0x080001e0   0x0000001c   Code   RO         1034    !!handler_zi        c_w.l(__scatter_zi.o)
    0x080001fc   0x00000000   Code   RO          713    .ARM.Collect$$_printf_percent$$00000000  c_w.l(_printf_percent.o)
    0x080001fc   0x00000006   Code   RO          779    .ARM.Collect$$_printf_percent$$00000001  c_w.l(_printf_n.o)
    0x08000202   0x00000006   Code   RO          781    .ARM.Collect$$_printf_percent$$00000002  c_w.l(_printf_p.o)
    0x08000208   0x00000006   Code   RO          785    .ARM.Collect$$_printf_percent$$00000003  c_w.l(_printf_f.o)
    0x0800020e   0x00000006   Code   RO          786    .ARM.Collect$$_printf_percent$$00000004  c_w.l(_printf_e.o)
    0x08000214   0x00000006   Code   RO          787    .ARM.Collect$$_printf_percent$$00000005  c_w.l(_printf_g.o)
    0x0800021a   0x00000006   Code   RO          788    .ARM.Collect$$_printf_percent$$00000006  c_w.l(_printf_a.o)
    0x08000220   0x0000000a   Code   RO          793    .ARM.Collect$$_printf_percent$$00000007  c_w.l(_printf_ll.o)
    0x0800022a   0x00000006   Code   RO          783    .ARM.Collect$$_printf_percent$$00000008  c_w.l(_printf_i.o)
    0x08000230   0x00000006   Code   RO          712    .ARM.Collect$$_printf_percent$$00000009  c_w.l(_printf_d.o)
    0x08000236   0x00000006   Code   RO          784    .ARM.Collect$$_printf_percent$$0000000A  c_w.l(_printf_u.o)
    0x0800023c   0x00000006   Code   RO          782    .ARM.Collect$$_printf_percent$$0000000B  c_w.l(_printf_o.o)
    0x08000242   0x00000006   Code   RO          780    .ARM.Collect$$_printf_percent$$0000000C  c_w.l(_printf_x.o)
    0x08000248   0x00000006   Code   RO          790    .ARM.Collect$$_printf_percent$$0000000D  c_w.l(_printf_lli.o)
    0x0800024e   0x00000006   Code   RO          791    .ARM.Collect$$_printf_percent$$0000000E  c_w.l(_printf_lld.o)
    0x08000254   0x00000006   Code   RO          792    .ARM.Collect$$_printf_percent$$0000000F  c_w.l(_printf_llu.o)
    0x0800025a   0x00000006   Code   RO          797    .ARM.Collect$$_printf_percent$$00000010  c_w.l(_printf_llo.o)
    0x08000260   0x00000006   Code   RO          798    .ARM.Collect$$_printf_percent$$00000011  c_w.l(_printf_llx.o)
    0x08000266   0x0000000a   Code   RO          794    .ARM.Collect$$_printf_percent$$00000012  c_w.l(_printf_l.o)
    0x08000270   0x00000006   Code   RO          777    .ARM.Collect$$_printf_percent$$00000013  c_w.l(_printf_c.o)
    0x08000276   0x00000006   Code   RO          778    .ARM.Collect$$_printf_percent$$00000014  c_w.l(_printf_s.o)
    0x0800027c   0x00000006   Code   RO          795    .ARM.Collect$$_printf_percent$$00000015  c_w.l(_printf_lc.o)
    0x08000282   0x00000006   Code   RO          796    .ARM.Collect$$_printf_percent$$00000016  c_w.l(_printf_ls.o)
    0x08000288   0x00000004   Code   RO          789    .ARM.Collect$$_printf_percent$$00000017  c_w.l(_printf_percent_end.o)
    0x0800028c   0x00000002   Code   RO          896    .ARM.Collect$$libinit$$00000000  c_w.l(libinit.o)
    0x0800028e   0x00000004   Code   RO          911    .ARM.Collect$$libinit$$00000001  c_w.l(libinit2.o)
    0x08000292   0x00000000   Code   RO          914    .ARM.Collect$$libinit$$00000004  c_w.l(libinit2.o)
    0x08000292   0x00000000   Code   RO          917    .ARM.Collect$$libinit$$0000000A  c_w.l(libinit2.o)
    0x08000292   0x00000000   Code   RO          919    .ARM.Collect$$libinit$$0000000C  c_w.l(libinit2.o)
    0x08000292   0x00000000   Code   RO          921    .ARM.Collect$$libinit$$0000000E  c_w.l(libinit2.o)
    0x08000292   0x00000006   Code   RO          922    .ARM.Collect$$libinit$$0000000F  c_w.l(libinit2.o)
    0x08000298   0x00000000   Code   RO          924    .ARM.Collect$$libinit$$00000011  c_w.l(libinit2.o)
    0x08000298   0x0000000c   Code   RO          925    .ARM.Collect$$libinit$$00000012  c_w.l(libinit2.o)
    0x080002a4   0x00000000   Code   RO          926    .ARM.Collect$$libinit$$00000013  c_w.l(libinit2.o)
    0x080002a4   0x00000000   Code   RO          928    .ARM.Collect$$libinit$$00000015  c_w.l(libinit2.o)
    0x080002a4   0x0000000a   Code   RO          929    .ARM.Collect$$libinit$$00000016  c_w.l(libinit2.o)
    0x080002ae   0x00000000   Code   RO          930    .ARM.Collect$$libinit$$00000017  c_w.l(libinit2.o)
    0x080002ae   0x00000000   Code   RO          932    .ARM.Collect$$libinit$$00000019  c_w.l(libinit2.o)
    0x080002ae   0x00000000   Code   RO          934    .ARM.Collect$$libinit$$0000001B  c_w.l(libinit2.o)
    0x080002ae   0x00000000   Code   RO          936    .ARM.Collect$$libinit$$0000001D  c_w.l(libinit2.o)
    0x080002ae   0x00000000   Code   RO          938    .ARM.Collect$$libinit$$0000001F  c_w.l(libinit2.o)
    0x080002ae   0x00000000   Code   RO          940    .ARM.Collect$$libinit$$00000021  c_w.l(libinit2.o)
    0x080002ae   0x00000000   Code   RO          942    .ARM.Collect$$libinit$$00000023  c_w.l(libinit2.o)
    0x080002ae   0x00000000   Code   RO          944    .ARM.Collect$$libinit$$00000025  c_w.l(libinit2.o)
    0x080002ae   0x00000000   Code   RO          948    .ARM.Collect$$libinit$$0000002C  c_w.l(libinit2.o)
    0x080002ae   0x00000000   Code   RO          950    .ARM.Collect$$libinit$$0000002E  c_w.l(libinit2.o)
    0x080002ae   0x00000000   Code   RO          952    .ARM.Collect$$libinit$$00000030  c_w.l(libinit2.o)
    0x080002ae   0x00000000   Code   RO          954    .ARM.Collect$$libinit$$00000032  c_w.l(libinit2.o)
    0x080002ae   0x00000002   Code   RO          955    .ARM.Collect$$libinit$$00000033  c_w.l(libinit2.o)
    0x080002b0   0x00000002   Code   RO          973    .ARM.Collect$$libshutdown$$00000000  c_w.l(libshutdown.o)
    0x080002b2   0x00000000   Code   RO          984    .ARM.Collect$$libshutdown$$00000003  c_w.l(libshutdown2.o)
    0x080002b2   0x00000000   Code   RO          987    .ARM.Collect$$libshutdown$$00000006  c_w.l(libshutdown2.o)
    0x080002b2   0x00000000   Code   RO          990    .ARM.Collect$$libshutdown$$00000009  c_w.l(libshutdown2.o)
    0x080002b2   0x00000000   Code   RO          992    .ARM.Collect$$libshutdown$$0000000B  c_w.l(libshutdown2.o)
    0x080002b2   0x00000000   Code   RO          995    .ARM.Collect$$libshutdown$$0000000E  c_w.l(libshutdown2.o)
    0x080002b2   0x00000002   Code   RO          996    .ARM.Collect$$libshutdown$$0000000F  c_w.l(libshutdown2.o)
    0x080002b4   0x00000000   Code   RO          728    .ARM.Collect$$rtentry$$00000000  c_w.l(__rtentry.o)
    0x080002b4   0x00000000   Code   RO          817    .ARM.Collect$$rtentry$$00000002  c_w.l(__rtentry2.o)
    0x080002b4   0x00000006   Code   RO          829    .ARM.Collect$$rtentry$$00000004  c_w.l(__rtentry4.o)
    0x080002ba   0x00000000   Code   RO          819    .ARM.Collect$$rtentry$$00000009  c_w.l(__rtentry2.o)
    0x080002ba   0x00000004   Code   RO          820    .ARM.Collect$$rtentry$$0000000A  c_w.l(__rtentry2.o)
    0x080002be   0x00000000   Code   RO          822    .ARM.Collect$$rtentry$$0000000C  c_w.l(__rtentry2.o)
    0x080002be   0x00000008   Code   RO          823    .ARM.Collect$$rtentry$$0000000D  c_w.l(__rtentry2.o)
    0x080002c6   0x00000002   Code   RO          904    .ARM.Collect$$rtexit$$00000000  c_w.l(rtexit.o)
    0x080002c8   0x00000000   Code   RO          957    .ARM.Collect$$rtexit$$00000002  c_w.l(rtexit2.o)
    0x080002c8   0x00000004   Code   RO          958    .ARM.Collect$$rtexit$$00000003  c_w.l(rtexit2.o)
    0x080002cc   0x00000006   Code   RO          959    .ARM.Collect$$rtexit$$00000004  c_w.l(rtexit2.o)
    0x080002d2   0x00000002   PAD
    0x080002d4   0x00000044   Code   RO            4    .text               startup_stm32f40_41xxx.o
    0x08000318   0x00000002   Code   RO          676    .text               c_w.l(use_no_semi_2.o)
    0x0800031a   0x00000002   PAD
    0x0800031c   0x00000024   Code   RO          678    .text               c_w.l(vsprintf.o)
    0x08000340   0x00000018   Code   RO          680    .text               c_w.l(__2printf.o)
    0x08000358   0x0000002c   Code   RO          682    .text               c_w.l(__2sprintf.o)
    0x08000384   0x00000078   Code   RO          690    .text               c_w.l(_printf_dec.o)
    0x080003fc   0x00000188   Code   RO          709    .text               c_w.l(__printf_flags_ss_wp.o)
    0x08000584   0x0000003e   Code   RO          714    .text               c_w.l(strlen.o)
    0x080005c2   0x00000006   Code   RO          716    .text               c_w.l(heapauxi.o)
    0x080005c8   0x00000002   Code   RO          726    .text               c_w.l(use_no_semi.o)
    0x080005ca   0x0000004e   Code   RO          729    .text               c_w.l(_printf_pad.o)
    0x08000618   0x00000024   Code   RO          731    .text               c_w.l(_printf_truncate.o)
    0x0800063c   0x00000052   Code   RO          733    .text               c_w.l(_printf_str.o)
    0x0800068e   0x000000b2   Code   RO          735    .text               c_w.l(_printf_intcommon.o)
    0x08000740   0x00000028   Code   RO          737    .text               c_w.l(_printf_charcount.o)
    0x08000768   0x00000030   Code   RO          739    .text               c_w.l(_printf_char_common.o)
    0x08000798   0x0000000a   Code   RO          741    .text               c_w.l(_sputc.o)
    0x080007a2   0x00000002   PAD
    0x080007a4   0x00000024   Code   RO          743    .text               c_w.l(_printf_char_file.o)
    0x080007c8   0x000000bc   Code   RO          745    .text               c_w.l(_printf_wctomb.o)
    0x08000884   0x0000007c   Code   RO          748    .text               c_w.l(_printf_longlong_dec.o)
    0x08000900   0x00000070   Code   RO          754    .text               c_w.l(_printf_oct_int_ll.o)
    0x08000970   0x00000094   Code   RO          774    .text               c_w.l(_printf_hex_int_ll_ptr.o)
    0x08000a04   0x0000008a   Code   RO          831    .text               c_w.l(lludiv10.o)
    0x08000a8e   0x0000041a   Code   RO          833    .text               c_w.l(_printf_fp_dec.o)
    0x08000ea8   0x000002fc   Code   RO          835    .text               c_w.l(_printf_fp_hex.o)
    0x080011a4   0x0000002c   Code   RO          840    .text               c_w.l(_printf_char.o)
    0x080011d0   0x0000002c   Code   RO          842    .text               c_w.l(_printf_wchar.o)
    0x080011fc   0x00000008   Code   RO          844    .text               c_w.l(ferror.o)
    0x08001204   0x00000040   Code   RO          848    .text               c_w.l(_wcrtomb.o)
    0x08001244   0x0000004a   Code   RO          850    .text               c_w.l(sys_stackheap_outer.o)
    0x0800128e   0x00000002   PAD
    0x08001290   0x00000010   Code   RO          852    .text               c_w.l(rt_ctype_table.o)
    0x080012a0   0x00000008   Code   RO          857    .text               c_w.l(rt_locale_intlibspace.o)
    0x080012a8   0x00000080   Code   RO          859    .text               c_w.l(_printf_fp_infnan.o)
    0x08001328   0x000000dc   Code   RO          861    .text               c_w.l(bigflt0.o)
    0x08001404   0x0000000c   Code   RO          889    .text               c_w.l(exit.o)
    0x08001410   0x00000008   Code   RO          901    .text               c_w.l(libspace.o)
    0x08001418   0x00000080   Code   RO          909    .text               c_w.l(strcmpv7m.o)
    0x08001498   0x0000003e   Code   RO          864    CL$$btod_d2e        c_w.l(btod.o)
    0x080014d6   0x00000046   Code   RO          866    CL$$btod_d2e_denorm_low  c_w.l(btod.o)
    0x0800151c   0x00000060   Code   RO          865    CL$$btod_d2e_norm_op1  c_w.l(btod.o)
    0x0800157c   0x00000338   Code   RO          874    CL$$btod_div_common  c_w.l(btod.o)
    0x080018b4   0x000000c6   Code   RO          871    CL$$btod_e2e        c_w.l(btod.o)
    0x0800197a   0x00000028   Code   RO          868    CL$$btod_ediv       c_w.l(btod.o)
    0x080019a2   0x00000028   Code   RO          867    CL$$btod_emul       c_w.l(btod.o)
    0x080019ca   0x00000244   Code   RO          873    CL$$btod_mult_common  c_w.l(btod.o)
    0x08001c0e   0x00000002   PAD
    0x08001c10   0x000000c4   Code   RO          322    i.Adc_Init          adc.o
    0x08001cd4   0x0000006c   Code   RO          438    i.Aux_Int           lora_app.o
    0x08001d40   0x0000001c   Code   RO          534    i.ClearBitMask      rc522.o
    0x08001d5c   0x0000009c   Code   RO          439    i.EXTI9_5_IRQHandler  lora_app.o
    0x08001df8   0x000000b4   Code   RO          131    i.Ex_NVIC_Config    sys.o
    0x08001eac   0x00000040   Code   RO          132    i.GPIO_AF_Set       sys.o
    0x08001eec   0x000000de   Code   RO          133    i.GPIO_Set          sys.o
    0x08001fca   0x00000002   PAD
    0x08001fcc   0x0000003c   Code   RO          323    i.Get_Adc           adc.o
    0x08002008   0x0000002e   Code   RO          324    i.Get_Adc_Average   adc.o
    0x08002036   0x00000002   PAD
    0x08002038   0x00000050   Code   RO          295    i.KEY_Init          key.o
    0x08002088   0x00000084   Code   RO          296    i.KEY_Scan          key.o
    0x0800210c   0x00000040   Code   RO          275    i.LED_Init          led.o
    0x0800214c   0x000000f8   Code   RO          440    i.LoRa_Init         lora_app.o
    0x08002244   0x0000005c   Code   RO          441    i.LoRa_Process      lora_app.o
    0x080022a0   0x00000068   Code   RO          442    i.LoRa_SendData     lora_app.o
    0x08002308   0x00000044   Code   RO          443    i.LoRa_Set          lora_app.o
    0x0800234c   0x0000008c   Code   RO          444    i.Lora_Test         lora_app.o
    0x080023d8   0x0000005c   Code   RO          535    i.M500PcdConfigISOType  rc522.o
    0x08002434   0x00000078   Code   RO          136    i.MY_NVIC_Init      sys.o
    0x080024ac   0x00000028   Code   RO          137    i.MY_NVIC_PriorityGroupConfig  sys.o
    0x080024d4   0x00000010   Code   RO          138    i.MY_NVIC_SetVectorTable  sys.o
    0x080024e4   0x0000000c   Code   RO          536    i.PcdAntennaOff     rc522.o
    0x080024f0   0x0000001a   Code   RO          537    i.PcdAntennaOn      rc522.o
    0x0800250a   0x00000132   Code   RO          541    i.PcdComMF522       rc522.o
    0x0800263c   0x00000054   Code   RO          544    i.PcdRequest        rc522.o
    0x08002690   0x00000074   Code   RO          545    i.PcdReset          rc522.o
    0x08002704   0x00000094   Code   RO          549    i.ReadRawRC         rc522.o
    0x08002798   0x00000060   Code   RO          550    i.SPI_Init          rc522.o
    0x080027f8   0x0000001c   Code   RO          551    i.SetBitMask        rc522.o
    0x08002814   0x00000068   Code   RO          139    i.Stm32_Clock_Init  sys.o
    0x0800287c   0x0000010c   Code   RO          140    i.Sys_Clock_Set     sys.o
    0x08002988   0x0000003c   Code   RO          354    i.TIM7_IRQHandler   timer.o
    0x080029c4   0x00000058   Code   RO          355    i.TIM7_Int_Init     timer.o
    0x08002a1c   0x00000080   Code   RO          226    i.USART1_IRQHandler  usart.o
    0x08002a9c   0x00000070   Code   RO          389    i.USART3_IRQHandler  usart3.o
    0x08002b0c   0x000000a0   Code   RO          552    i.WriteRawRC        rc522.o
    0x08002bac   0x00000030   Code   RO          899    i.__ARM_fpclassify  m_wm.l(fpclassify.o)
    0x08002bdc   0x0000000e   Code   RO          702    i._is_digit         c_w.l(__printf_wp.o)
    0x08002bea   0x00000004   Code   RO          227    i._sys_exit         usart.o
    0x08002bee   0x0000000c   Code   RO          553    i.delay_10ms        rc522.o
    0x08002bfa   0x00000002   PAD
    0x08002bfc   0x00000040   Code   RO           90    i.delay_init        delay.o
    0x08002c3c   0x00000038   Code   RO           91    i.delay_ms          delay.o
    0x08002c74   0x0000003c   Code   RO           93    i.delay_xms         delay.o
    0x08002cb0   0x0000001c   Code   RO          228    i.fputc             usart.o
    0x08002ccc   0x00000028   Code   RO          507    i.lora_check_cmd    lora_ui.o
    0x08002cf4   0x00000080   Code   RO          508    i.lora_send_cmd     lora_ui.o
    0x08002d74   0x0000003a   Code   RO           12    i.main              test.o
    0x08002dae   0x00000002   PAD
    0x08002db0   0x00000050   Code   RO          390    i.u3_printf         usart3.o
    0x08002e00   0x00000100   Code   RO          229    i.uart_init         usart.o
    0x08002f00   0x00000120   Code   RO          391    i.usart3_init       usart3.o
    0x08003020   0x0000002c   Code   RO          887    locale$$code        c_w.l(lc_numeric_c.o)
    0x0800304c   0x0000002c   Code   RO          907    locale$$code        c_w.l(lc_ctype_c.o)
    0x08003078   0x00000062   Code   RO          720    x$fpl$d2f           fz_wm.l(d2f.o)
    0x080030da   0x00000002   PAD
    0x080030dc   0x00000154   Code   RO          722    x$fpl$dmul          fz_wm.l(dmul.o)
    0x08003230   0x0000009c   Code   RO          799    x$fpl$dnaninf       fz_wm.l(dnaninf.o)
    0x080032cc   0x0000000c   Code   RO          801    x$fpl$dretinf       fz_wm.l(dretinf.o)
    0x080032d8   0x00000056   Code   RO          724    x$fpl$f2d           fz_wm.l(f2d.o)
    0x0800332e   0x0000008c   Code   RO          803    x$fpl$fnaninf       fz_wm.l(fnaninf.o)
    0x080033ba   0x0000000a   Code   RO          965    x$fpl$fpinit        fz_wm.l(fpinit.o)
    0x080033c4   0x0000000a   Code   RO          805    x$fpl$fretinf       fz_wm.l(fretinf.o)
    0x080033ce   0x00000004   Code   RO          807    x$fpl$printf1       fz_wm.l(printf1.o)
    0x080033d2   0x00000004   Code   RO          809    x$fpl$printf2       fz_wm.l(printf2.o)
    0x080033d6   0x00000000   Code   RO          815    x$fpl$usenofp       fz_wm.l(usenofp.o)
    0x080033d6   0x00000011   Data   RO          710    .constdata          c_w.l(__printf_flags_ss_wp.o)
    0x080033e7   0x00000001   PAD
    0x080033e8   0x00000008   Data   RO          746    .constdata          c_w.l(_printf_wctomb.o)
    0x080033f0   0x00000028   Data   RO          775    .constdata          c_w.l(_printf_hex_int_ll_ptr.o)
    0x08003418   0x00000026   Data   RO          836    .constdata          c_w.l(_printf_fp_hex.o)
    0x0800343e   0x00000002   PAD
    0x08003440   0x00000094   Data   RO          862    .constdata          c_w.l(bigflt0.o)
    0x080034d4   0x00000020   Data   RO         1028    Region$$Table       anon$$obj.o
    0x080034f4   0x0000001c   Data   RO          886    locale$$data        c_w.l(lc_numeric_c.o)
    0x08003510   0x00000110   Data   RO          906    locale$$data        c_w.l(lc_ctype_c.o)


    Execution Region RW_IRAM1 (Base: 0x20000000, Size: 0x00000bb0, Max: 0x00020000, ABSOLUTE)

    Base Addr    Size         Type   Attr      Idx    E Section Name        Object

    0x20000000   0x00000004   Data   RW           94    .data               delay.o
    0x20000004   0x00000006   Data   RW          231    .data               usart.o
    0x2000000a   0x00000001   Data   RW          297    .data               key.o
    0x2000000b   0x00000001   PAD
    0x2000000c   0x00000002   Data   RW          393    .data               usart3.o
    0x2000000e   0x00000002   PAD
    0x20000010   0x0000001a   Data   RW          446    .data               lora_app.o
    0x2000002a   0x00000002   PAD
    0x2000002c   0x000000c8   Zero   RW          230    .bss                usart.o
    0x200000f4   0x00000004   PAD
    0x200000f8   0x00000640   Zero   RW          392    .bss                usart3.o
    0x20000738   0x00000014   Zero   RW          445    .bss                lora_app.o
    0x2000074c   0x00000060   Zero   RW          902    .bss                c_w.l(libspace.o)
    0x200007ac   0x00000004   PAD
    0x200007b0   0x00000000   Zero   RW            2    HEAP                startup_stm32f40_41xxx.o
    0x200007b0   0x00000400   Zero   RW            1    STACK               startup_stm32f40_41xxx.o


==============================================================================

Image component sizes


      Code (inc. data)   RO Data    RW Data    ZI Data      Debug   Object Name

       302         24          0          0          0       1651   adc.o
       180         12          0          4          0       1808   delay.o
       212         26          0          1          0       1114   key.o
        64         16          0          0          0        459   led.o
       916        178          0         26         20       4822   lora_app.o
       168         28          0          0          0       1697   lora_ui.o
      1108         46          0          0          0       7349   rc522.o
        68         24        392          0       1024        852   startup_stm32f40_41xxx.o
      1014         56          0          0          0       5463   sys.o
        58          0          0          0          0     233623   test.o
       148         16          0          0          0       1046   timer.o
       416         34          0          6        200       4112   usart.o
       480         50          0          2       1600       3222   usart3.o

    ----------------------------------------------------------------------
      5142        510        424         44       2848     267218   Object Totals
         0          0         32          0          0          0   (incl. Generated)
         8          0          0          5          4          0   (incl. Padding)

    ----------------------------------------------------------------------

      Code (inc. data)   RO Data    RW Data    ZI Data      Debug   Library Member Name

        24          4          0          0          0         84   __2printf.o
        44          6          0          0          0         84   __2sprintf.o
         8          0          0          0          0         68   __main.o
       392          4         17          0          0         92   __printf_flags_ss_wp.o
        14          0          0          0          0         68   __printf_wp.o
         0          0          0          0          0          0   __rtentry.o
        12          0          0          0          0          0   __rtentry2.o
         6          0          0          0          0          0   __rtentry4.o
        52          8          0          0          0          0   __scatter.o
        26          0          0          0          0          0   __scatter_copy.o
        28          0          0          0          0          0   __scatter_zi.o
         6          0          0          0          0          0   _printf_a.o
         6          0          0          0          0          0   _printf_c.o
        44          0          0          0          0        108   _printf_char.o
        48          6          0          0          0         96   _printf_char_common.o
        36          4          0          0          0         80   _printf_char_file.o
        40          0          0          0          0         68   _printf_charcount.o
         6          0          0          0          0          0   _printf_d.o
       120         16          0          0          0         92   _printf_dec.o
         6          0          0          0          0          0   _printf_e.o
         6          0          0          0          0          0   _printf_f.o
      1050          0          0          0          0        216   _printf_fp_dec.o
       764         10         38          0          0        100   _printf_fp_hex.o
       128         16          0          0          0         84   _printf_fp_infnan.o
         6          0          0          0          0          0   _printf_g.o
       148          4         40          0          0        160   _printf_hex_int_ll_ptr.o
         6          0          0          0          0          0   _printf_i.o
       178          0          0          0          0         88   _printf_intcommon.o
        10          0          0          0          0          0   _printf_l.o
         6          0          0          0          0          0   _printf_lc.o
        10          0          0          0          0          0   _printf_ll.o
         6          0          0          0          0          0   _printf_lld.o
         6          0          0          0          0          0   _printf_lli.o
         6          0          0          0          0          0   _printf_llo.o
         6          0          0          0          0          0   _printf_llu.o
         6          0          0          0          0          0   _printf_llx.o
       124         16          0          0          0         92   _printf_longlong_dec.o
         6          0          0          0          0          0   _printf_ls.o
         6          0          0          0          0          0   _printf_n.o
         6          0          0          0          0          0   _printf_o.o
       112          8          0          0          0        124   _printf_oct_int_ll.o
         6          0          0          0          0          0   _printf_p.o
        78          0          0          0          0        108   _printf_pad.o
         0          0          0          0          0          0   _printf_percent.o
         4          0          0          0          0          0   _printf_percent_end.o
         6          0          0          0          0          0   _printf_s.o
        82          0          0          0          0         80   _printf_str.o
        36          0          0          0          0         84   _printf_truncate.o
         6          0          0          0          0          0   _printf_u.o
        44          0          0          0          0        108   _printf_wchar.o
       188          6          8          0          0         92   _printf_wctomb.o
         6          0          0          0          0          0   _printf_x.o
        10          0          0          0          0         68   _sputc.o
        64          0          0          0          0         92   _wcrtomb.o
       220          4        148          0          0         96   bigflt0.o
      1910        128          0          0          0        672   btod.o
        12          0          0          0          0         72   exit.o
         8          0          0          0          0         68   ferror.o
         6          0          0          0          0        152   heapauxi.o
        44         10        272          0          0         76   lc_ctype_c.o
        44         10         28          0          0         76   lc_numeric_c.o
         2          0          0          0          0          0   libinit.o
        34          0          0          0          0          0   libinit2.o
         2          0          0          0          0          0   libshutdown.o
         2          0          0          0          0          0   libshutdown2.o
         8          4          0          0         96         68   libspace.o
       138          0          0          0          0         80   lludiv10.o
        16          4          0          0          0         76   rt_ctype_table.o
         8          4          0          0          0         68   rt_locale_intlibspace.o
         2          0          0          0          0          0   rtexit.o
        10          0          0          0          0          0   rtexit2.o
       128          0          0          0          0         68   strcmpv7m.o
        62          0          0          0          0         76   strlen.o
        74          0          0          0          0         80   sys_stackheap_outer.o
         2          0          0          0          0         68   use_no_semi.o
         2          0          0          0          0         68   use_no_semi_2.o
        36          4          0          0          0         76   vsprintf.o
        98          4          0          0          0        140   d2f.o
       340         12          0          0          0        152   dmul.o
       156          4          0          0          0        140   dnaninf.o
        12          0          0          0          0        116   dretinf.o
        86          4          0          0          0        132   f2d.o
       140          4          0          0          0        132   fnaninf.o
        10          0          0          0          0        116   fpinit.o
        10          0          0          0          0        116   fretinf.o
         4          0          0          0          0        116   printf1.o
         4          0          0          0          0        116   printf2.o
         0          0          0          0          0          0   usenofp.o
        48          0          0          0          0        124   fpclassify.o

    ----------------------------------------------------------------------
      7736        304        554          0        100       5676   Library Totals
        14          0          3          0          4          0   (incl. Padding)

    ----------------------------------------------------------------------

      Code (inc. data)   RO Data    RW Data    ZI Data      Debug   Library Name

      6814        276        551          0         96       4276   c_w.l
       860         28          0          0          0       1276   fz_wm.l
        48          0          0          0          0        124   m_wm.l

    ----------------------------------------------------------------------
      7736        304        554          0        100       5676   Library Totals

    ----------------------------------------------------------------------

==============================================================================


      Code (inc. data)   RO Data    RW Data    ZI Data      Debug   

     12878        814        978         44       2948     265254   Grand Totals
     12878        814        978         44       2948     265254   ELF Image Totals
     12878        814        978         44          0          0   ROM Totals

==============================================================================

    Total RO  Size (Code + RO Data)                13856 (  13.53kB)
    Total RW  Size (RW Data + ZI Data)              2992 (   2.92kB)
    Total ROM Size (Code + RO Data + RW Data)      13900 (  13.57kB)

==============================================================================

